{
  "_format": "hh-sol-artifact-1",
  "contractName": "Factory",
  "sourceName": "contracts/Factory.sol",
  "abi": [
    {
      "anonymous": false,
      "inputs": [
        {
          "indexed": false,
          "internalType": "address",
          "name": "previousAdmin",
          "type": "address"
        },
        {
          "indexed": false,
          "internalType": "address",
          "name": "newAdmin",
          "type": "address"
        }
      ],
      "name": "AdminChanged",
      "type": "event"
    },
    {
      "anonymous": false,
      "inputs": [
        {
          "indexed": true,
          "internalType": "address",
          "name": "beacon",
          "type": "address"
        }
      ],
      "name": "BeaconUpgraded",
      "type": "event"
    },
    {
      "anonymous": false,
      "inputs": [
        {
          "indexed": false,
          "internalType": "string",
          "name": "name",
          "type": "string"
        },
        {
          "indexed": true,
          "internalType": "address",
          "name": "vault",
          "type": "address"
        },
        {
          "indexed": true,
          "internalType": "address",
          "name": "tokenAddress",
          "type": "address"
        }
      ],
      "name": "NewVault",
      "type": "event"
    },
    {
      "anonymous": false,
      "inputs": [
        {
          "indexed": true,
          "internalType": "address",
          "name": "previousOwner",
          "type": "address"
        },
        {
          "indexed": true,
          "internalType": "address",
          "name": "newOwner",
          "type": "address"
        }
      ],
      "name": "OwnershipTransferred",
      "type": "event"
    },
    {
      "anonymous": false,
      "inputs": [
        {
          "indexed": true,
          "internalType": "address",
          "name": "implementation",
          "type": "address"
        }
      ],
      "name": "Upgraded",
      "type": "event"
    },
    {
      "inputs": [
        {
          "internalType": "uint256",
          "name": "_id",
          "type": "uint256"
        }
      ],
      "name": "delVault",
      "outputs": [],
      "stateMutability": "nonpayable",
      "type": "function"
    },
    {
      "inputs": [
        {
          "internalType": "address",
          "name": "_vaultAddress",
          "type": "address"
        }
      ],
      "name": "delegateToCeramic",
      "outputs": [
        {
          "internalType": "string",
          "name": "",
          "type": "string"
        }
      ],
      "stateMutability": "view",
      "type": "function"
    },
    {
      "inputs": [
        {
          "internalType": "address",
          "name": "_vaultAddr",
          "type": "address"
        }
      ],
      "name": "distributeVaultTokens",
      "outputs": [],
      "stateMutability": "nonpayable",
      "type": "function"
    },
    {
      "inputs": [],
      "name": "getAllVaults",
      "outputs": [
        {
          "components": [
            {
              "internalType": "uint256",
              "name": "id",
              "type": "uint256"
            },
            {
              "internalType": "address",
              "name": "addr",
              "type": "address"
            }
          ],
          "internalType": "struct CRUD.Instance[]",
          "name": "",
          "type": "tuple[]"
        }
      ],
      "stateMutability": "view",
      "type": "function"
    },
    {
      "inputs": [
        {
          "internalType": "uint256",
          "name": "_id",
          "type": "uint256"
        }
      ],
      "name": "getVaultAddress",
      "outputs": [
        {
          "internalType": "address",
          "name": "",
          "type": "address"
        }
      ],
      "stateMutability": "view",
      "type": "function"
    },
    {
      "inputs": [
        {
          "internalType": "address",
          "name": "_initiator",
          "type": "address"
        }
      ],
      "name": "initialize",
      "outputs": [],
      "stateMutability": "nonpayable",
      "type": "function"
    },
    {
      "inputs": [],
      "name": "initiator",
      "outputs": [
        {
          "internalType": "address",
          "name": "",
          "type": "address"
        }
      ],
      "stateMutability": "view",
      "type": "function"
    },
    {
      "inputs": [
        {
          "internalType": "string",
          "name": "_vaultName",
          "type": "string"
        },
        {
          "internalType": "string",
          "name": "_ticker",
          "type": "string"
        },
        {
          "internalType": "uint256",
          "name": "_sharesAmount",
          "type": "uint256"
        }
      ],
      "name": "newVault",
      "outputs": [],
      "stateMutability": "payable",
      "type": "function"
    },
    {
      "inputs": [],
      "name": "owner",
      "outputs": [
        {
          "internalType": "address",
          "name": "",
          "type": "address"
        }
      ],
      "stateMutability": "view",
      "type": "function"
    },
    {
      "inputs": [],
      "name": "renounceOwnership",
      "outputs": [],
      "stateMutability": "nonpayable",
      "type": "function"
    },
    {
      "inputs": [
        {
          "internalType": "address",
          "name": "_new_initiator",
          "type": "address"
        }
      ],
      "name": "setInitiator",
      "outputs": [],
      "stateMutability": "nonpayable",
      "type": "function"
    },
    {
      "inputs": [
        {
          "internalType": "address",
          "name": "_vaultAddr",
          "type": "address"
        },
        {
          "internalType": "address",
          "name": "_initiator",
          "type": "address"
        }
      ],
      "name": "setupVault",
      "outputs": [],
      "stateMutability": "nonpayable",
      "type": "function"
    },
    {
      "inputs": [
        {
          "internalType": "address",
          "name": "newOwner",
          "type": "address"
        }
      ],
      "name": "transferOwnership",
      "outputs": [],
      "stateMutability": "nonpayable",
      "type": "function"
    },
    {
      "inputs": [
        {
          "internalType": "address",
          "name": "newImplementation",
          "type": "address"
        }
      ],
      "name": "upgradeTo",
      "outputs": [],
      "stateMutability": "nonpayable",
      "type": "function"
    },
    {
      "inputs": [
        {
          "internalType": "address",
          "name": "newImplementation",
          "type": "address"
        },
        {
          "internalType": "bytes",
          "name": "data",
          "type": "bytes"
        }
      ],
      "name": "upgradeToAndCall",
      "outputs": [],
      "stateMutability": "payable",
      "type": "function"
    }
  ],
  "bytecode": "0x60a06040523060601b60805234801561001757600080fd5b5060805160601c61582261004b600039600081816106b5015281816106f50152818161077e01526107be01526158226000f3fe6080604052600436106100b85760003560e01c80631fb1f96d146100bd578063302aa11e146100f3578063354e2145146101155780633659cfe6146101285780634f1ef286146101485780635c39fcc11461015b578063715018a6146101885780638da5cb5b1461019d57806397331bf9146101b2578063c4d66de8146101d4578063c6fb3ecc146101f4578063d59dfd6114610214578063e6bd26a214610234578063f2fde38b14610254578063f72663c214610274575b600080fd5b3480156100c957600080fd5b506100dd6100d8366004611204565b610294565b6040516100ea91906114db565b60405180910390f35b3480156100ff57600080fd5b5061011361010e36600461140f565b610340565b005b6101136101233660046113a6565b6103d9565b34801561013457600080fd5b50610113610143366004611204565b6106aa565b610113610156366004611274565b610773565b34801561016757600080fd5b5060c95461017b906001600160a01b031681565b6040516100ea919061146f565b34801561019457600080fd5b5061011361082d565b3480156101a957600080fd5b5061017b610868565b3480156101be57600080fd5b506101c7610877565b6040516100ea9190611483565b3480156101e057600080fd5b506101136101ef366004611204565b6108fd565b34801561020057600080fd5b5061011361020f366004611204565b610a22565b34801561022057600080fd5b5061011361022f366004611204565b610aad565b34801561024057600080fd5b5061017b61024f36600461140f565b610b0b565b34801561026057600080fd5b5061011361026f366004611204565b610b8e565b34801561028057600080fd5b5061011361028f36600461123c565b610c2b565b6001600160a01b038116600090815260cc602052604090208054606091906102bb9061167f565b80601f01602080910402602001604051908101604052809291908181526020018280546102e79061167f565b80156103345780601f1061030957610100808354040283529160200191610334565b820191906000526020600020905b81548152906001019060200180831161031757829003601f168201915b50505050509050919050565b33610349610868565b6001600160a01b0316146103785760405162461bcd60e51b815260040161036f906115c2565b60405180910390fd5b60cb546040516357771a2360e01b8152600481018390526001600160a01b03909116906357771a2390602401600060405180830381600087803b1580156103be57600080fd5b505af11580156103d2573d6000803e3d6000fd5b5050505050565b60006040516103e790611174565b604051809103906000f080158015610403573d6000803e3d6000fd5b5060405163588ca48760e11b81529091506001600160a01b0382169063b119490e9061043790879087908790600401611518565b600060405180830381600087803b15801561045157600080fd5b505af1158015610465573d6000803e3d6000fd5b505060c95460405163d59dfd6160e01b81526001600160a01b03808616945063d59dfd61935061049992169060040161146f565b600060405180830381600087803b1580156104b357600080fd5b505af11580156104c7573d6000803e3d6000fd5b5050505060008190506000826001600160a01b031663624aa0fd6040518163ffffffff1660e01b815260040160206040518083038186803b15801561050b57600080fd5b505afa15801561051f573d6000803e3d6000fd5b505050506040513d601f19601f820116820180604052508101906105439190611220565b9050826001600160a01b0316635aac895b34336040518363ffffffff1660e01b8152600401610572919061146f565b6000604051808303818588803b15801561058b57600080fd5b505af115801561059f573d6000803e3d6000fd5b5050505050806001600160a01b0316826001600160a01b03167fcd0442b3f935a8c98745f6e083226c5937c39406bbc691d8b5e216c7b34176e3886040516105e791906114db565b60405180910390a3610622604051806040016040528060118152602001702b30bab63a1031b932b0ba32b21030ba1d60791b81525083610cbf565b60cb5460ca5460405163780ff34960e11b815260048101919091526001600160a01b0384811660248301529091169063f01fe69290604401600060405180830381600087803b15801561067457600080fd5b505af1158015610688573d6000803e3d6000fd5b505060ca805492509050600061069d836116ba565b9190505550505050505050565b306001600160a01b037f00000000000000000000000000000000000000000000000000000000000000001614156106f35760405162461bcd60e51b815260040161036f9061154e565b7f00000000000000000000000000000000000000000000000000000000000000006001600160a01b0316610725610d04565b6001600160a01b03161461074b5760405162461bcd60e51b815260040161036f90611588565b61075481610d20565b6040805160008082526020820190925261077091839190610d4f565b50565b306001600160a01b037f00000000000000000000000000000000000000000000000000000000000000001614156107bc5760405162461bcd60e51b815260040161036f9061154e565b7f00000000000000000000000000000000000000000000000000000000000000006001600160a01b03166107ee610d04565b6001600160a01b0316146108145760405162461bcd60e51b815260040161036f90611588565b61081d82610d20565b61082982826001610d4f565b5050565b33610836610868565b6001600160a01b03161461085c5760405162461bcd60e51b815260040161036f906115c2565b6108666000610e8f565b565b6097546001600160a01b031690565b60cb54604080516341f654f760e01b815290516060926001600160a01b0316916341f654f7916004808301926000929190829003018186803b1580156108bc57600080fd5b505afa1580156108d0573d6000803e3d6000fd5b505050506040513d6000823e601f3d908101601f191682016040526108f891908101906112d4565b905090565b600054610100900460ff166109185760005460ff161561091c565b303b155b61097f5760405162461bcd60e51b815260206004820152602e60248201527f496e697469616c697a61626c653a20636f6e747261637420697320616c72656160448201526d191e481a5b9a5d1a585b1a5e995960921b606482015260840161036f565b600054610100900460ff161580156109a1576000805461ffff19166101011790555b6109a9610ee1565b60c980546001600160a01b0319166001600160a01b0384161790556040516109d090611181565b604051809103906000f0801580156109ec573d6000803e3d6000fd5b5060cb80546001600160a01b0319166001600160a01b03929092169190911790558015610829576000805461ff00191690555050565b33610a2b610868565b6001600160a01b031614610a515760405162461bcd60e51b815260040161036f906115c2565b6000819050806001600160a01b0316639ab1b4846040518163ffffffff1660e01b8152600401600060405180830381600087803b158015610a9157600080fd5b505af1158015610aa5573d6000803e3d6000fd5b505050505050565b33610ab6610868565b6001600160a01b031614610adc5760405162461bcd60e51b815260040161036f906115c2565b6001600160a01b038116156107705760c980546001600160a01b0383166001600160a01b031990911617905550565b60cb5460405163ed2e5a9760e01b8152600481018390526000916001600160a01b03169063ed2e5a979060240160206040518083038186803b158015610b5057600080fd5b505afa158015610b64573d6000803e3d6000fd5b505050506040513d601f19601f82011682018060405250810190610b889190611220565b92915050565b33610b97610868565b6001600160a01b031614610bbd5760405162461bcd60e51b815260040161036f906115c2565b6001600160a01b038116610c225760405162461bcd60e51b815260206004820152602660248201527f4f776e61626c653a206e6577206f776e657220697320746865207a65726f206160448201526564647265737360d01b606482015260840161036f565b61077081610e8f565b33610c34610868565b6001600160a01b031614610c5a5760405162461bcd60e51b815260040161036f906115c2565b60405163d59dfd6160e01b815282906001600160a01b0382169063d59dfd6190610c8890859060040161146f565b600060405180830381600087803b158015610ca257600080fd5b505af1158015610cb6573d6000803e3d6000fd5b50505050505050565b6108298282604051602401610cd59291906114ee565b60408051601f198184030181529190526020810180516001600160e01b031663319af33360e01b179052610f55565b6000805160206157a6833981519152546001600160a01b031690565b33610d29610868565b6001600160a01b0316146107705760405162461bcd60e51b815260040161036f906115c2565b6000610d59610d04565b9050610d6484610f76565b600083511180610d715750815b15610d8257610d808484611009565b505b7f4910fdfa16fed3260ed0e7147f7cc6da11a60208b5b9406d12a635614ffd9143805460ff166103d257805460ff19166001178155604051610dfd908690610dce90859060240161146f565b60408051601f198184030181529190526020810180516001600160e01b0316631b2ce7f360e11b179052611009565b50805460ff19168155610e0e610d04565b6001600160a01b0316826001600160a01b031614610e865760405162461bcd60e51b815260206004820152602f60248201527f45524331393637557067726164653a207570677261646520627265616b73206660448201526e75727468657220757067726164657360881b606482015260840161036f565b6103d2856110f4565b609780546001600160a01b038381166001600160a01b0319831681179093556040519116919082907f8be0079c531659141344cd1fd0a4f28419497f9722a3daafe3b4186f6b6457e090600090a35050565b600054610100900460ff16610f4c5760405162461bcd60e51b815260206004820152602b60248201527f496e697469616c697a61626c653a20636f6e7472616374206973206e6f74206960448201526a6e697469616c697a696e6760a81b606482015260840161036f565b61086633610e8f565b80516a636f6e736f6c652e6c6f67602083016000808483855afa5050505050565b803b610fda5760405162461bcd60e51b815260206004820152602d60248201527f455243313936373a206e657720696d706c656d656e746174696f6e206973206e60448201526c1bdd08184818dbdb9d1c9858dd609a1b606482015260840161036f565b6000805160206157a683398151915280546001600160a01b0319166001600160a01b0392909216919091179055565b6060823b6110685760405162461bcd60e51b815260206004820152602660248201527f416464726573733a2064656c65676174652063616c6c20746f206e6f6e2d636f6044820152651b9d1c9858dd60d21b606482015260840161036f565b600080846001600160a01b0316846040516110839190611453565b600060405180830381855af49150503d80600081146110be576040519150601f19603f3d011682016040523d82523d6000602084013e6110c3565b606091505b50915091506110eb82826040518060600160405280602781526020016157c660279139611134565b95945050505050565b6110fd81610f76565b6040516001600160a01b038216907fbc7cd75a20ee27fd9adebab32041f755214dbc6bffa90cc0225b39da2e5c2d3b90600090a250565b6060831561114357508161116d565b8251156111535782518084602001fd5b8160405162461bcd60e51b815260040161036f91906114db565b9392505050565b613b288061170d83390190565b6105518061523583390190565b60006001600160401b038311156111a7576111a76116e1565b6111ba601f8401601f191660200161161f565b90508281528383830111156111ce57600080fd5b828260208301376000602084830101529392505050565b600082601f8301126111f5578081fd5b61116d8383356020850161118e565b600060208284031215611215578081fd5b813561116d816116f7565b600060208284031215611231578081fd5b815161116d816116f7565b6000806040838503121561124e578081fd5b8235611259816116f7565b91506020830135611269816116f7565b809150509250929050565b60008060408385031215611286578182fd5b8235611291816116f7565b915060208301356001600160401b038111156112ab578182fd5b8301601f810185136112bb578182fd5b6112ca8582356020840161118e565b9150509250929050565b600060208083850312156112e6578182fd5b82516001600160401b03808211156112fc578384fd5b818501915085601f83011261130f578384fd5b815181811115611321576113216116e1565b61132f848260051b0161161f565b8181528481019250838501600683901b8501860189101561134e578687fd5b8694505b8285101561139a57604080828b03121561136a578788fd5b6113726115f7565b8251815287830151611383816116f7565b818901528552600195909501949386019301611352565b50979650505050505050565b6000806000606084860312156113ba578081fd5b83356001600160401b03808211156113d0578283fd5b6113dc878388016111e5565b945060208601359150808211156113f1578283fd5b506113fe868287016111e5565b925050604084013590509250925092565b600060208284031215611420578081fd5b5035919050565b6000815180845261143f81602086016020860161164f565b601f01601f19169290920160200192915050565b6000825161146581846020870161164f565b9190910192915050565b6001600160a01b0391909116815260200190565b602080825282518282018190526000919060409081850190868401855b828110156114ce578151805185528601516001600160a01b03168685015292840192908501906001016114a0565b5091979650505050505050565b60208152600061116d6020830184611427565b6040815260006115016040830185611427565b905060018060a01b03831660208301529392505050565b60608152600061152b6060830186611427565b828103602084015261153d8186611427565b915050826040830152949350505050565b6020808252602c9082015260008051602061578683398151915260408201526b19195b1959d85d1958d85b1b60a21b606082015260800190565b6020808252602c9082015260008051602061578683398151915260408201526b6163746976652070726f787960a01b606082015260800190565b6020808252818101527f4f776e61626c653a2063616c6c6572206973206e6f7420746865206f776e6572604082015260600190565b604080519081016001600160401b0381118282101715611619576116196116e1565b60405290565b604051601f8201601f191681016001600160401b0381118282101715611647576116476116e1565b604052919050565b60005b8381101561166a578181015183820152602001611652565b83811115611679576000848401525b50505050565b600181811c9082168061169357607f821691505b602082108114156116b457634e487b7160e01b600052602260045260246000fd5b50919050565b60006000198214156116da57634e487b7160e01b81526011600452602481fd5b5060010190565b634e487b7160e01b600052604160045260246000fd5b6001600160a01b038116811461077057600080fdfe60a06040523060601b60805234801561001757600080fd5b5060805160601c613add61004b6000396000818161086b015281816108ab01528181610adc0152610b1c0152613add6000f3fe6080604052600436106101735760003560e01c806301ffc9a7146101785780630bcf70d9146101be57806310fe9ae8146101e057806312fb18d214610207578063150b7a021461021c5780631d9a4bf21461029d57806333289a46146102bf5780633659cfe6146102df57806346eba9b3146102ff5780634c3c2372146103145780634f1ef28614610336578063521ad829146103495780635aac895b146103695780635c39fcc11461037c578063624aa0fd1461039c5780636e164e23146103ba578063715018a6146103da578063775a25e3146103ef5780637a7664601461040e57806385a383d0146104445780638da5cb5b146104645780639ab1b484146104795780639ebb12501461048e578063b119490e146104a3578063b322e9a9146104c3578063b61b2c43146104d8578063bc197c81146104e0578063c084b10b1461050f578063d59dfd6114610545578063f23a6e6114610565578063f2fde38b146105cf578063fc6bd6dc146105ef575b600080fd5b34801561018457600080fd5b506101a9610193366004611cad565b6001600160e01b0319166301ffc9a760e01b1490565b60405190151581526020015b60405180910390f35b3480156101ca57600080fd5b506101de6101d9366004611da7565b610604565b005b3480156101ec57600080fd5b5060cf546001600160a01b03165b6040516101b59190611e4a565b34801561021357600080fd5b506101de6106b9565b34801561022857600080fd5b50610284610237366004611b4e565b505060cf8054336001600160a01b03199182161790915560d080549091166001600160a01b03939093169290921790915560d1555060d2805460ff19166001179055630a85bd0160e11b90565b6040516001600160e01b031990911681526020016101b5565b3480156102a957600080fd5b506102b26106e5565b6040516101b59190611ee0565b3480156102cb57600080fd5b506101de6102da366004611da7565b61074a565b3480156102eb57600080fd5b506101de6102fa366004611a7e565b610860565b34801561030b57600080fd5b506101de610929565b34801561032057600080fd5b50610329610a4b565b6040516101b59190611f2d565b6101de610344366004611c2f565b610ad1565b34801561035557600080fd5b506101de610364366004611dd7565b610b87565b6101de610377366004611a7e565b610bb8565b34801561038857600080fd5b5060c9546101fa906001600160a01b031681565b3480156103a857600080fd5b5060d4546001600160a01b03166101fa565b3480156103c657600080fd5b506101de6103d5366004611dd7565b610ca4565b3480156103e657600080fd5b506101de610df5565b3480156103fb57600080fd5b5060d5545b6040519081526020016101b5565b34801561041a57600080fd5b50610400610429366004611a7e565b6001600160a01b0316600090815260cc602052604090205490565b34801561045057600080fd5b506101de61045f366004611a7e565b610e2e565b34801561047057600080fd5b506101fa610f2c565b34801561048557600080fd5b506101de610f3b565b34801561049a57600080fd5b506101de61116e565b3480156104af57600080fd5b506101de6104be366004611d3e565b61122c565b3480156104cf57600080fd5b506103296113a8565b6101de6113ed565b3480156104ec57600080fd5b506102846104fb366004611a98565b63bc197c8160e01b98975050505050505050565b34801561051b57600080fd5b5061040061052a366004611a7e565b6001600160a01b0316600090815260cb602052604090205490565b34801561055157600080fd5b506101de610560366004611a7e565b611426565b34801561057157600080fd5b50610284610580366004611bba565b60cf80546001600160a01b0319908116331790915560d080546001600160a01b038816921691909117905560d184905560d2805460ff1916600217905563f23a6e6160e01b9695505050505050565b3480156105db57600080fd5b506101de6105ea366004611a7e565b611484565b3480156105fb57600080fd5b5060ca54610400565b60c9546001600160a01b031633146106375760405162461bcd60e51b815260040161062e90611fc1565b60405180910390fd5b60c9546040516001600160a01b039091169082156108fc029083906000818181858888f19350505050158015610671573d6000803e3d6000fd5b5060c9546040518281526001600160a01b039091169030907fec81baf44a01b9ebf929a2549dea1929ade755e2c39675465b7b7af5681adaa99060200160405180910390a350565b60c9546001600160a01b031633146106e35760405162461bcd60e51b815260040161062e90611fc1565b565b606060cd60010180548060200260200160405190810160405280929190818152602001828054801561074057602002820191906000526020600020905b81546001600160a01b03168152600190910190602001808311610722575b5050505050905090565b33600090815260cb60205260409020546107a05760405162461bcd60e51b8152602060048201526017602482015276151a19481d5cd95c881a185cc81b9bc819195c1bdcda5d604a1b604482015260640161062e565b33600090815260cb602052604090205481111561080b5760405162461bcd60e51b8152602060048201526024808201527f4e6f7420656e6f756768206465706f736974206f6e207573657227732062616c604482015263616e636560e01b606482015260840161062e565b33600090815260cb60205260408120805483929061082a90849061213b565b9091555050604051339082156108fc029083906000818181858888f1935050505015801561085c573d6000803e3d6000fd5b5050565b306001600160a01b037f00000000000000000000000000000000000000000000000000000000000000001614156108a95760405162461bcd60e51b815260040161062e90611f87565b7f00000000000000000000000000000000000000000000000000000000000000006001600160a01b03166108db611521565b6001600160a01b0316146109015760405162461bcd60e51b815260040161062e9061201e565b61090a8161153d565b604080516000808252602082019092526109269183919061156c565b50565b60c9546001600160a01b031633146109535760405162461bcd60e51b815260040161062e90611fc1565b60d25460ff16600114156109d25760cf5460c95460d154604051632142170760e11b81526001600160a01b039384169384936342842e0e9361099d93309390921691600401611e5e565b600060405180830381600087803b1580156109b757600080fd5b505af11580156109cb573d6000803e3d6000fd5b5050505050565b60cf5460c95460d154604051637921219560e11b81526001600160a01b0393841693606093859363f242432a93610a159330931691906001908890600401611e82565b600060405180830381600087803b158015610a2f57600080fd5b505af1158015610a43573d6000803e3d6000fd5b505050505050565b60d454604080516306fdde0360e01b815290516060926001600160a01b0316916306fdde03916004808301926000929190829003018186803b158015610a9057600080fd5b505afa158015610aa4573d6000803e3d6000fd5b505050506040513d6000823e601f3d908101601f19168201604052610acc9190810190611cd5565b905090565b306001600160a01b037f0000000000000000000000000000000000000000000000000000000000000000161415610b1a5760405162461bcd60e51b815260040161062e90611f87565b7f00000000000000000000000000000000000000000000000000000000000000006001600160a01b0316610b4c611521565b6001600160a01b031614610b725760405162461bcd60e51b815260040161062e9061201e565b610b7b8261153d565b61085c8282600161156c565b6001600160a01b038116600090815260cc602052604081208054849290610baf9084906120e4565b90915550505050565b6001600160a01b038116600090815260cb6020526040902054610c215760ca80546001810182556000919091527f42d72674974f694b5f5159593243114d38a5c39c89d6b62fee061ff523240ee10180546001600160a01b0319166001600160a01b0383161790555b3460d56000828254610c3391906120e4565b90915550506001600160a01b038116600090815260cb602052604081208054349290610c609084906120e4565b90915550506040517f83df459d706116d1b3f1c7b7f77cfea4c635275f5d1e1a53827f536ef48db77d90610c9990309084903490611e5e565b60405180910390a150565b336001600160a01b03821614610cb957600080fd5b6001600160a01b038116600090815260cc602052604090205482811015610d91576001600160a01b038216600090815260cc602052604081208054839290610d0290849061213b565b909155505060d45460405163a9059cbb60e01b81526001600160a01b039091169063a9059cbb90610d399085908590600401611ec7565b602060405180830381600087803b158015610d5357600080fd5b505af1158015610d67573d6000803e3d6000fd5b505050506040513d601f19601f82011682018060405250810190610d8b9190611c8d565b50505050565b6001600160a01b038216600090815260cc602052604081208054859290610db990849061213b565b909155505060d45460405163a9059cbb60e01b81526001600160a01b039091169063a9059cbb90610d399085908790600401611ec7565b505050565b33610dfe610f2c565b6001600160a01b031614610e245760405162461bcd60e51b815260040161062e90612058565b6106e360006116ac565b33610e37610f2c565b6001600160a01b031614610e5d5760405162461bcd60e51b815260040161062e90612058565b6001600160a01b038116600090815260cd602052604090205460ff1615610ec55760405162461bcd60e51b815260206004820152601c60248201527b151a1a5cc8185cdcd95d081a5cc8185b1c9958591e481b1bd8dad95960221b604482015260640161062e565b60ce805460018181019092557fd36cd1c74ef8d7326d8021b776c18fb5a5724b7f7bc93c2f42e43e10ef27d12a0180546001600160a01b039093166001600160a01b031990931683179055600091825260cd6020526040909120805460ff19169091179055565b6033546001600160a01b031690565b33610f44610f2c565b6001600160a01b031614610f6a5760405162461bcd60e51b815260040161062e90612058565b60d55460d454604080516318160ddd60e01b81529051600093926001600160a01b0316916318160ddd916004808301926020929190829003018186803b158015610fb357600080fd5b505afa158015610fc7573d6000803e3d6000fd5b505050506040513d601f19601f82011682018060405250810190610feb9190611dbf565b610ff591906120fc565b60d454604080516318160ddd60e01b815290519293506001600160a01b039091169163095ea7b391309184916318160ddd916004808301926020929190829003018186803b15801561104657600080fd5b505afa15801561105a573d6000803e3d6000fd5b505050506040513d601f19601f8201168201806040525081019061107e9190611dbf565b6040518363ffffffff1660e01b815260040161109b929190611ec7565b602060405180830381600087803b1580156110b557600080fd5b505af11580156110c9573d6000803e3d6000fd5b505050506040513d601f19601f820116820180604052508101906110ed9190611c8d565b5060005b60ca5481101561085c57600060ca828154811061111e57634e487b7160e01b600052603260045260246000fd5b60009182526020808320909101546001600160a01b031680835260cb90915260409091205490915061115b9061115590859061211c565b82610b87565b50806111668161217e565b9150506110f1565b33600090815260cb60205260409020546111ca5760405162461bcd60e51b815260206004820152601f60248201527f546869732075736572206973206e6f742061207061727469636970616e742e00604482015260640161062e565b33600090815260cb602052604081205460d5546111e791906120fc565b905060008160cf600401546111fc91906120fc565b604051909150339082156108fc029083906000818181858888f19350505050158015610df0573d6000803e3d6000fd5b600054610100900460ff166112475760005460ff161561124b565b303b155b6112ae5760405162461bcd60e51b815260206004820152602e60248201527f496e697469616c697a61626c653a20636f6e747261637420697320616c72656160448201526d191e481a5b9a5d1a585b1a5e995960921b606482015260840161062e565b600054610100900460ff161580156112d0576000805461ffff19166101011790555b6112d86116fe565b6040516112e490611970565b604051809103906000f080158015611300573d6000803e3d6000fd5b5060d480546001600160a01b0319166001600160a01b03929092169182179055604051635e9d09fb60e11b815263bd3a13f690611347908790879087903090600401611f40565b600060405180830381600087803b15801561136157600080fd5b505af1158015611375573d6000803e3d6000fd5b505060d4546001600160a01b03169150611390905081610e2e565b508015610d8b576000805461ff001916905550505050565b60d454604080516395d89b4160e01b815290516060926001600160a01b0316916395d89b41916004808301926000929190829003018186803b158015610a9057600080fd5b60c9546001600160a01b031633146114175760405162461bcd60e51b815260040161062e90611fc1565b61142134476120e4565b60d355565b3361142f610f2c565b6001600160a01b0316146114555760405162461bcd60e51b815260040161062e90612058565b6001600160a01b038116156109265760c980546001600160a01b0383166001600160a01b031990911617905550565b3361148d610f2c565b6001600160a01b0316146114b35760405162461bcd60e51b815260040161062e90612058565b6001600160a01b0381166115185760405162461bcd60e51b815260206004820152602660248201527f4f776e61626c653a206e6577206f776e657220697320746865207a65726f206160448201526564647265737360d01b606482015260840161062e565b610926816116ac565b600080516020613a61833981519152546001600160a01b031690565b33611546610f2c565b6001600160a01b0316146109265760405162461bcd60e51b815260040161062e90612058565b6000611576611521565b905061158184611772565b60008351118061158e5750815b1561159f5761159d8484611805565b505b7f4910fdfa16fed3260ed0e7147f7cc6da11a60208b5b9406d12a635614ffd9143805460ff166109cb57805460ff1916600117815560405161161a9086906115eb908590602401611e4a565b60408051601f198184030181529190526020810180516001600160e01b0316631b2ce7f360e11b179052611805565b50805460ff1916815561162b611521565b6001600160a01b0316826001600160a01b0316146116a35760405162461bcd60e51b815260206004820152602f60248201527f45524331393637557067726164653a207570677261646520627265616b73206660448201526e75727468657220757067726164657360881b606482015260840161062e565b6109cb856118f0565b603380546001600160a01b038381166001600160a01b0319831681179093556040519116919082907f8be0079c531659141344cd1fd0a4f28419497f9722a3daafe3b4186f6b6457e090600090a35050565b600054610100900460ff166117695760405162461bcd60e51b815260206004820152602b60248201527f496e697469616c697a61626c653a20636f6e7472616374206973206e6f74206960448201526a6e697469616c697a696e6760a81b606482015260840161062e565b6106e3336116ac565b803b6117d65760405162461bcd60e51b815260206004820152602d60248201527f455243313936373a206e657720696d706c656d656e746174696f6e206973206e60448201526c1bdd08184818dbdb9d1c9858dd609a1b606482015260840161062e565b600080516020613a6183398151915280546001600160a01b0319166001600160a01b0392909216919091179055565b6060823b6118645760405162461bcd60e51b815260206004820152602660248201527f416464726573733a2064656c65676174652063616c6c20746f206e6f6e2d636f6044820152651b9d1c9858dd60d21b606482015260840161062e565b600080846001600160a01b03168460405161187f9190611e2e565b600060405180830381855af49150503d80600081146118ba576040519150601f19603f3d011682016040523d82523d6000602084013e6118bf565b606091505b50915091506118e78282604051806060016040528060278152602001613a8160279139611930565b95945050505050565b6118f981611772565b6040516001600160a01b038216907fbc7cd75a20ee27fd9adebab32041f755214dbc6bffa90cc0225b39da2e5c2d3b90600090a250565b6060831561193f575081611969565b82511561194f5782518084602001fd5b8160405162461bcd60e51b815260040161062e9190611f2d565b9392505050565b61187b806121c683390190565b600061199061198b846120bd565b61208d565b90508281528383830111156119a457600080fd5b828260208301376000602084830101529392505050565b80356001600160a01b03811681146119d257600080fd5b919050565b60008083601f8401126119e8578182fd5b5081356001600160401b038111156119fe578182fd5b6020830191508360208260051b8501011115611a1957600080fd5b9250929050565b60008083601f840112611a31578182fd5b5081356001600160401b03811115611a47578182fd5b602083019150836020828501011115611a1957600080fd5b600082601f830112611a6f578081fd5b6119698383356020850161197d565b600060208284031215611a8f578081fd5b611969826119bb565b60008060008060008060008060a0898b031215611ab3578384fd5b611abc896119bb565b9750611aca60208a016119bb565b965060408901356001600160401b0380821115611ae5578586fd5b611af18c838d016119d7565b909850965060608b0135915080821115611b09578586fd5b611b158c838d016119d7565b909650945060808b0135915080821115611b2d578384fd5b50611b3a8b828c01611a20565b999c989b5096995094979396929594505050565b600080600080600060808688031215611b65578081fd5b611b6e866119bb565b9450611b7c602087016119bb565b93506040860135925060608601356001600160401b03811115611b9d578182fd5b611ba988828901611a20565b969995985093965092949392505050565b60008060008060008060a08789031215611bd2578182fd5b611bdb876119bb565b9550611be9602088016119bb565b9450604087013593506060870135925060808701356001600160401b03811115611c11578283fd5b611c1d89828a01611a20565b979a9699509497509295939492505050565b60008060408385031215611c41578182fd5b611c4a836119bb565b915060208301356001600160401b03811115611c64578182fd5b8301601f81018513611c74578182fd5b611c838582356020840161197d565b9150509250929050565b600060208284031215611c9e578081fd5b81518015158114611969578182fd5b600060208284031215611cbe578081fd5b81356001600160e01b031981168114611969578182fd5b600060208284031215611ce6578081fd5b81516001600160401b03811115611cfb578182fd5b8201601f81018413611d0b578182fd5b8051611d1961198b826120bd565b818152856020838501011115611d2d578384fd5b6118e7826020830160208601612152565b600080600060608486031215611d52578283fd5b83356001600160401b0380821115611d68578485fd5b611d7487838801611a5f565b94506020860135915080821115611d89578384fd5b50611d9686828701611a5f565b925050604084013590509250925092565b600060208284031215611db8578081fd5b5035919050565b600060208284031215611dd0578081fd5b5051919050565b60008060408385031215611de9578182fd5b82359150611df9602084016119bb565b90509250929050565b60008151808452611e1a816020860160208601612152565b601f01601f19169290920160200192915050565b60008251611e40818460208701612152565b9190910192915050565b6001600160a01b0391909116815260200190565b6001600160a01b039384168152919092166020820152604081019190915260600190565b6001600160a01b03868116825285166020820152604081018490526060810183905260a060808201819052600090611ebc90830184611e02565b979650505050505050565b6001600160a01b03929092168252602082015260400190565b6020808252825182820181905260009190848201906040850190845b81811015611f215783516001600160a01b031683529284019291840191600101611efc565b50909695505050505050565b6020815260006119696020830184611e02565b608081526000611f536080830187611e02565b8281036020840152611f658187611e02565b604084019590955250506001600160a01b039190911660609091015292915050565b6020808252602c90820152600080516020613a4183398151915260408201526b19195b1959d85d1958d85b1b60a21b606082015260800190565b6020808252603f908201527f546f2072756e2074686973206d6574686f6420796f75206e65656420746f206260408201527f6520616e20696e69746961746f72206f662074686520636f6e74726163742e00606082015260800190565b6020808252602c90820152600080516020613a4183398151915260408201526b6163746976652070726f787960a01b606082015260800190565b6020808252818101527f4f776e61626c653a2063616c6c6572206973206e6f7420746865206f776e6572604082015260600190565b604051601f8201601f191681016001600160401b03811182821017156120b5576120b56121af565b604052919050565b60006001600160401b038211156120d6576120d66121af565b50601f01601f191660200190565b600082198211156120f7576120f7612199565b500190565b60008261211757634e487b7160e01b81526012600452602481fd5b500490565b600081600019048311821515161561213657612136612199565b500290565b60008282101561214d5761214d612199565b500390565b60005b8381101561216d578181015183820152602001612155565b83811115610d8b5750506000910152565b600060001982141561219257612192612199565b5060010190565b634e487b7160e01b600052601160045260246000fd5b634e487b7160e01b600052604160045260246000fdfe60a06040523060601b60805234801561001757600080fd5b5060805160601c61183061004b600039600081816104b6015281816104f6015281816105f8015261063801526118306000f3fe6080604052600436106100d95760003560e01c806306fdde03146100de578063095ea7b31461010957806318160ddd1461013957806323b872dd14610158578063313ce567146101785780633659cfe61461019457806339509351146101b657806340c10f19146101d65780634f1ef286146101f657806370a0823114610209578063715018a61461023f5780638da5cb5b1461025457806395d89b4114610276578063a457c2d71461028b578063a9059cbb146102ab578063bd3a13f6146102cb578063dd62ed3e146102eb578063f2fde38b14610331575b600080fd5b3480156100ea57600080fd5b506100f3610351565b6040516101009190611494565b60405180910390f35b34801561011557600080fd5b506101296101243660046113c1565b6103e3565b6040519015158152602001610100565b34801561014557600080fd5b506035545b604051908152602001610100565b34801561016457600080fd5b50610129610173366004611328565b6103fa565b34801561018457600080fd5b5060405160128152602001610100565b3480156101a057600080fd5b506101b46101af3660046112dc565b6104ab565b005b3480156101c257600080fd5b506101296101d13660046113c1565b610574565b3480156101e257600080fd5b506101b46101f13660046113c1565b6105b0565b6101b4610204366004611363565b6105ed565b34801561021557600080fd5b5061014a6102243660046112dc565b6001600160a01b031660009081526033602052604090205490565b34801561024b57600080fd5b506101b46106a3565b34801561026057600080fd5b506102696106de565b6040516101009190611480565b34801561028257600080fd5b506100f36106ed565b34801561029757600080fd5b506101296102a63660046113c1565b6106fc565b3480156102b757600080fd5b506101296102c63660046113c1565b610795565b3480156102d757600080fd5b506101b46102e63660046113ea565b6107a2565b3480156102f757600080fd5b5061014a6103063660046112f6565b6001600160a01b03918216600090815260346020908152604080832093909416825291909152205490565b34801561033d57600080fd5b506101b461034c3660046112dc565b610890565b6060603680546103609061170c565b80601f016020809104026020016040519081016040528092919081815260200182805461038c9061170c565b80156103d95780601f106103ae576101008083540402835291602001916103d9565b820191906000526020600020905b8154815290600101906020018083116103bc57829003601f168201915b5050505050905090565b60006103f033848461092d565b5060015b92915050565b6000610407848484610a51565b6001600160a01b0384166000908152603460209081526040808320338452909152902054828110156104915760405162461bcd60e51b815260206004820152602860248201527f45524332303a207472616e7366657220616d6f756e74206578636565647320616044820152676c6c6f77616e636560c01b60648201526084015b60405180910390fd5b61049e853385840361092d565b60019150505b9392505050565b306001600160a01b037f00000000000000000000000000000000000000000000000000000000000000001614156104f45760405162461bcd60e51b8152600401610488906114c7565b7f00000000000000000000000000000000000000000000000000000000000000006001600160a01b0316610526610c0f565b6001600160a01b03161461054c5760405162461bcd60e51b815260040161048890611501565b61055581610c2b565b6040805160008082526020820190925261057191839190610c5a565b50565b3360008181526034602090815260408083206001600160a01b038716845290915281205490916103f09185906105ab9086906115bb565b61092d565b336105b96106de565b6001600160a01b0316146105df5760405162461bcd60e51b81526004016104889061153b565b6105e98282610d9a565b5050565b306001600160a01b037f00000000000000000000000000000000000000000000000000000000000000001614156106365760405162461bcd60e51b8152600401610488906114c7565b7f00000000000000000000000000000000000000000000000000000000000000006001600160a01b0316610668610c0f565b6001600160a01b03161461068e5760405162461bcd60e51b815260040161048890611501565b61069782610c2b565b6105e982826001610c5a565b336106ac6106de565b6001600160a01b0316146106d25760405162461bcd60e51b81526004016104889061153b565b6106dc6000610e67565b565b6065546001600160a01b031690565b6060603780546103609061170c565b3360009081526034602090815260408083206001600160a01b03861684529091528120548281101561077e5760405162461bcd60e51b815260206004820152602560248201527f45524332303a2064656372656173656420616c6c6f77616e63652062656c6f77604482015264207a65726f60d81b6064820152608401610488565b61078b338585840361092d565b5060019392505050565b60006103f0338484610a51565b600054610100900460ff166107bd5760005460ff16156107c1565b303b155b6108245760405162461bcd60e51b815260206004820152602e60248201527f496e697469616c697a61626c653a20636f6e747261637420697320616c72656160448201526d191e481a5b9a5d1a585b1a5e995960921b6064820152608401610488565b600054610100900460ff16158015610846576000805461ffff19166101011790555b6108508585610eb9565b610858610ef2565b610877826108686012600a611616565b61087290866116c1565b610d9a565b8015610889576000805461ff00191690555b5050505050565b336108996106de565b6001600160a01b0316146108bf5760405162461bcd60e51b81526004016104889061153b565b6001600160a01b0381166109245760405162461bcd60e51b815260206004820152602660248201527f4f776e61626c653a206e6577206f776e657220697320746865207a65726f206160448201526564647265737360d01b6064820152608401610488565b61057181610e67565b6001600160a01b03831661098f5760405162461bcd60e51b8152602060048201526024808201527f45524332303a20617070726f76652066726f6d20746865207a65726f206164646044820152637265737360e01b6064820152608401610488565b6001600160a01b0382166109f05760405162461bcd60e51b815260206004820152602260248201527f45524332303a20617070726f766520746f20746865207a65726f206164647265604482015261737360f01b6064820152608401610488565b6001600160a01b0383811660008181526034602090815260408083209487168084529482529182902085905590518481527f8c5be1e5ebec7d5bd14f71427d1e84f3dd0314c0f7b2291e5b200ac8c7c3b925910160405180910390a3505050565b6001600160a01b038316610ab55760405162461bcd60e51b815260206004820152602560248201527f45524332303a207472616e736665722066726f6d20746865207a65726f206164604482015264647265737360d81b6064820152608401610488565b6001600160a01b038216610b175760405162461bcd60e51b815260206004820152602360248201527f45524332303a207472616e7366657220746f20746865207a65726f206164647260448201526265737360e81b6064820152608401610488565b6001600160a01b03831660009081526033602052604090205481811015610b8f5760405162461bcd60e51b815260206004820152602660248201527f45524332303a207472616e7366657220616d6f756e7420657863656564732062604482015265616c616e636560d01b6064820152608401610488565b6001600160a01b03808516600090815260336020526040808220858503905591851681529081208054849290610bc69084906115bb565b92505081905550826001600160a01b0316846001600160a01b03166000805160206117db83398151915284604051610c0091815260200190565b60405180910390a35b50505050565b600080516020611794833981519152546001600160a01b031690565b33610c346106de565b6001600160a01b0316146105715760405162461bcd60e51b81526004016104889061153b565b6000610c64610c0f565b9050610c6f84610f27565b600083511180610c7c5750815b15610c8d57610c8b8484610fba565b505b7f4910fdfa16fed3260ed0e7147f7cc6da11a60208b5b9406d12a635614ffd9143805460ff1661088957805460ff19166001178155604051610d08908690610cd9908590602401611480565b60408051601f198184030181529190526020810180516001600160e01b0316631b2ce7f360e11b179052610fba565b50805460ff19168155610d19610c0f565b6001600160a01b0316826001600160a01b031614610d915760405162461bcd60e51b815260206004820152602f60248201527f45524331393637557067726164653a207570677261646520627265616b73206660448201526e75727468657220757067726164657360881b6064820152608401610488565b610889856110a5565b6001600160a01b038216610df05760405162461bcd60e51b815260206004820152601f60248201527f45524332303a206d696e7420746f20746865207a65726f2061646472657373006044820152606401610488565b8060356000828254610e0291906115bb565b90915550506001600160a01b03821660009081526033602052604081208054839290610e2f9084906115bb565b90915550506040518181526001600160a01b038316906000906000805160206117db8339815191529060200160405180910390a35050565b606580546001600160a01b038381166001600160a01b0319831681179093556040519116919082907f8be0079c531659141344cd1fd0a4f28419497f9722a3daafe3b4186f6b6457e090600090a35050565b600054610100900460ff16610ee05760405162461bcd60e51b815260040161048890611570565b610ee86110e5565b6105e9828261110c565b600054610100900460ff16610f195760405162461bcd60e51b815260040161048890611570565b6106dc33610e67565b505050565b803b610f8b5760405162461bcd60e51b815260206004820152602d60248201527f455243313936373a206e657720696d706c656d656e746174696f6e206973206e60448201526c1bdd08184818dbdb9d1c9858dd609a1b6064820152608401610488565b60008051602061179483398151915280546001600160a01b0319166001600160a01b0392909216919091179055565b6060823b6110195760405162461bcd60e51b815260206004820152602660248201527f416464726573733a2064656c65676174652063616c6c20746f206e6f6e2d636f6044820152651b9d1c9858dd60d21b6064820152608401610488565b600080846001600160a01b0316846040516110349190611464565b600060405180830381855af49150503d806000811461106f576040519150601f19603f3d011682016040523d82523d6000602084013e611074565b606091505b509150915061109c82826040518060600160405280602781526020016117b46027913961115a565b95945050505050565b6110ae81610f27565b6040516001600160a01b038216907fbc7cd75a20ee27fd9adebab32041f755214dbc6bffa90cc0225b39da2e5c2d3b90600090a250565b600054610100900460ff166106dc5760405162461bcd60e51b815260040161048890611570565b600054610100900460ff166111335760405162461bcd60e51b815260040161048890611570565b8151611146906036906020850190611193565b508051610f22906037906020840190611193565b606083156111695750816104a4565b8251156111795782518084602001fd5b8160405162461bcd60e51b81526004016104889190611494565b82805461119f9061170c565b90600052602060002090601f0160209004810192826111c15760008555611207565b82601f106111da57805160ff1916838001178555611207565b82800160010185558215611207579182015b828111156112075782518255916020019190600101906111ec565b50611213929150611217565b5090565b5b808211156112135760008155600101611218565b60006001600160401b03808411156112465761124661175d565b604051601f8501601f19908116603f0116810190828211818310171561126e5761126e61175d565b8160405280935085815286868601111561128757600080fd5b858560208301376000602087830101525050509392505050565b80356001600160a01b03811681146112b857600080fd5b919050565b600082601f8301126112cd578081fd5b6104a48383356020850161122c565b6000602082840312156112ed578081fd5b6104a4826112a1565b60008060408385031215611308578081fd5b611311836112a1565b915061131f602084016112a1565b90509250929050565b60008060006060848603121561133c578081fd5b611345846112a1565b9250611353602085016112a1565b9150604084013590509250925092565b60008060408385031215611375578182fd5b61137e836112a1565b915060208301356001600160401b03811115611398578182fd5b8301601f810185136113a8578182fd5b6113b78582356020840161122c565b9150509250929050565b600080604083850312156113d3578182fd5b6113dc836112a1565b946020939093013593505050565b600080600080608085870312156113ff578081fd5b84356001600160401b0380821115611415578283fd5b611421888389016112bd565b95506020870135915080821115611436578283fd5b50611443878288016112bd565b93505060408501359150611459606086016112a1565b905092959194509250565b600082516114768184602087016116e0565b9190910192915050565b6001600160a01b0391909116815260200190565b60208152600082518060208401526114b38160408501602087016116e0565b601f01601f19169190910160400192915050565b6020808252602c9082015260008051602061177483398151915260408201526b19195b1959d85d1958d85b1b60a21b606082015260800190565b6020808252602c9082015260008051602061177483398151915260408201526b6163746976652070726f787960a01b606082015260800190565b6020808252818101527f4f776e61626c653a2063616c6c6572206973206e6f7420746865206f776e6572604082015260600190565b6020808252602b908201527f496e697469616c697a61626c653a20636f6e7472616374206973206e6f74206960408201526a6e697469616c697a696e6760a81b606082015260800190565b600082198211156115ce576115ce611747565b500190565b600181815b8085111561160e5781600019048211156115f4576115f4611747565b8085161561160157918102915b93841c93908002906115d8565b509250929050565b60006104a460ff84168360008261162f575060016103f4565b8161163c575060006103f4565b8160018114611652576002811461165c57611678565b60019150506103f4565b60ff84111561166d5761166d611747565b50506001821b6103f4565b5060208310610133831016604e8410600b841016171561169b575081810a6103f4565b6116a583836115d3565b80600019048211156116b9576116b9611747565b029392505050565b60008160001904831182151516156116db576116db611747565b500290565b60005b838110156116fb5781810151838201526020016116e3565b83811115610c095750506000910152565b600181811c9082168061172057607f821691505b6020821081141561174157634e487b7160e01b600052602260045260246000fd5b50919050565b634e487b7160e01b600052601160045260246000fd5b634e487b7160e01b600052604160045260246000fdfe46756e6374696f6e206d7573742062652063616c6c6564207468726f75676820360894a13ba1a3210667c828492db98dca3e2076cc3735a920a3ca505d382bbc416464726573733a206c6f772d6c6576656c2064656c65676174652063616c6c206661696c6564ddf252ad1be2c89b69c2b068fc378daa952ba7f163c4a11628f55a4df523b3efa26469706673582212209d3e65192d3a8eade3a6dd6334d7eecef47278fe75c710d96188b87f292180dd64736f6c6343000804003346756e6374696f6e206d7573742062652063616c6c6564207468726f75676820360894a13ba1a3210667c828492db98dca3e2076cc3735a920a3ca505d382bbc416464726573733a206c6f772d6c6576656c2064656c65676174652063616c6c206661696c6564a26469706673582212205f243202ce21b3d57724cdcef8f695843e6e26a505b9781326e956f913c89f7564736f6c63430008040033608060405234801561001057600080fd5b50610531806100206000396000f3fe608060405234801561001057600080fd5b50600436106100625760003560e01c806341f654f71461006757806357771a2314610085578063711e32151461009a578063e68c24ae146100ca578063ed2e5a97146100dd578063f01fe69214610108575b600080fd5b61006f6101ab565b60405161007c91906104a3565b60405180910390f35b610098610093366004610451565b610220565b005b6100ad6100a8366004610451565b6102a5565b604080519283526001600160a01b0390911660208301520161007c565b6100986100d8366004610469565b6102dc565b6100f06100eb366004610451565b610375565b6040516001600160a01b03909116815260200161007c565b610098610116366004610469565b604080518082019091529182526001600160a01b03908116602083019081526000805460018101825590805292517f290decd9548b62a8d60345a988386fc84ba6bc95484008f6362f93160ef3e563600290940293840155517f290decd9548b62a8d60345a988386fc84ba6bc95484008f6362f93160ef3e56490920180546001600160a01b03191692909116919091179055565b60606000805480602002602001604051908101604052809291908181526020016000905b828210156102175760008481526020908190206040805180820190915260028502909101805482526001908101546001600160a01b03168284015290835290920191016101cf565b50505050905090565b806000828154811061024257634e487b7160e01b600052603260045260246000fd5b9060005260206000209060020201600001541461025e57600080fd5b6000818154811061027f57634e487b7160e01b600052603260045260246000fd5b60009182526020822060029091020190815560010180546001600160a01b031916905550565b600081815481106102b557600080fd5b6000918252602090912060029091020180546001909101549091506001600160a01b031682565b81600083815481106102fe57634e487b7160e01b600052603260045260246000fd5b9060005260206000209060020201600001541461031a57600080fd5b806000838154811061033c57634e487b7160e01b600052603260045260246000fd5b906000526020600020906002020160010160006101000a8154816001600160a01b0302191690836001600160a01b031602179055505050565b6000816000838154811061039957634e487b7160e01b600052603260045260246000fd5b9060005260206000209060020201600001541461040d5760405162461bcd60e51b815260206004820152602860248201527f546865207661756c742077697468207468697320696e64657820646f6573206e6044820152671bdd08195e1a5cdd60c21b606482015260840160405180910390fd5b6000828154811061042e57634e487b7160e01b600052603260045260246000fd5b60009182526020909120600160029092020101546001600160a01b031692915050565b600060208284031215610462578081fd5b5035919050565b6000806040838503121561047b578081fd5b8235915060208301356001600160a01b0381168114610498578182fd5b809150509250929050565b602080825282518282018190526000919060409081850190868401855b828110156104ee578151805185528601516001600160a01b03168685015292840192908501906001016104c0565b509197965050505050505056fea26469706673582212203ab5ea2467a97b511c4fd8adca6c1dda9cb633a748e75f8febbeaed0d88523cc64736f6c6343000804003346756e6374696f6e206d7573742062652063616c6c6564207468726f75676820360894a13ba1a3210667c828492db98dca3e2076cc3735a920a3ca505d382bbc416464726573733a206c6f772d6c6576656c2064656c65676174652063616c6c206661696c6564a2646970667358221220c90a30a31fe8f7d757f0d609124d906aa8322427501e0a62dfafe4ac815f4ad164736f6c63430008040033",
  "linkReferences": {},
  "deployedLinkReferences": {}
}