{
  "_format": "hh-sol-artifact-1",
  "contractName": "Vault",
  "sourceName": "contracts/Vault.sol",
  "abi": [
    {
      "anonymous": false,
      "inputs": [
        {
          "indexed": false,
          "internalType": "address",
          "name": "previousAdmin",
          "type": "address"
        },
        {
          "indexed": false,
          "internalType": "address",
          "name": "newAdmin",
          "type": "address"
        }
      ],
      "name": "AdminChanged",
      "type": "event"
    },
    {
      "anonymous": false,
      "inputs": [
        {
          "indexed": true,
          "internalType": "address",
          "name": "beacon",
          "type": "address"
        }
      ],
      "name": "BeaconUpgraded",
      "type": "event"
    },
    {
      "anonymous": false,
      "inputs": [
        {
          "indexed": false,
          "internalType": "address",
          "name": "vaultAddr",
          "type": "address"
        },
        {
          "indexed": false,
          "internalType": "address",
          "name": "sender",
          "type": "address"
        },
        {
          "indexed": false,
          "internalType": "uint256",
          "name": "deposit",
          "type": "uint256"
        }
      ],
      "name": "NewDeposit",
      "type": "event"
    },
    {
      "anonymous": false,
      "inputs": [
        {
          "indexed": true,
          "internalType": "address",
          "name": "previousOwner",
          "type": "address"
        },
        {
          "indexed": true,
          "internalType": "address",
          "name": "newOwner",
          "type": "address"
        }
      ],
      "name": "OwnershipTransferred",
      "type": "event"
    },
    {
      "anonymous": false,
      "inputs": [
        {
          "indexed": true,
          "internalType": "address",
          "name": "vaultAddr",
          "type": "address"
        },
        {
          "indexed": true,
          "internalType": "address",
          "name": "oracleAddr",
          "type": "address"
        },
        {
          "indexed": false,
          "internalType": "uint256",
          "name": "amount",
          "type": "uint256"
        }
      ],
      "name": "TransferToOracle",
      "type": "event"
    },
    {
      "anonymous": false,
      "inputs": [
        {
          "indexed": true,
          "internalType": "address",
          "name": "implementation",
          "type": "address"
        }
      ],
      "name": "Upgraded",
      "type": "event"
    },
    {
      "inputs": [
        {
          "internalType": "address",
          "name": "_assetAddress",
          "type": "address"
        }
      ],
      "name": "addErc20Asset",
      "outputs": [],
      "stateMutability": "nonpayable",
      "type": "function"
    },
    {
      "inputs": [
        {
          "internalType": "uint256",
          "name": "_amount",
          "type": "uint256"
        },
        {
          "internalType": "address",
          "name": "_user",
          "type": "address"
        }
      ],
      "name": "autoStake",
      "outputs": [],
      "stateMutability": "nonpayable",
      "type": "function"
    },
    {
      "inputs": [
        {
          "internalType": "uint256",
          "name": "_amount",
          "type": "uint256"
        },
        {
          "internalType": "address",
          "name": "_user",
          "type": "address"
        }
      ],
      "name": "claimTokens",
      "outputs": [],
      "stateMutability": "nonpayable",
      "type": "function"
    },
    {
      "inputs": [],
      "name": "distributeTokens",
      "outputs": [],
      "stateMutability": "nonpayable",
      "type": "function"
    },
    {
      "inputs": [],
      "name": "getBalance",
      "outputs": [
        {
          "internalType": "uint256",
          "name": "",
          "type": "uint256"
        }
      ],
      "stateMutability": "view",
      "type": "function"
    },
    {
      "inputs": [],
      "name": "getERC20TokenAddress",
      "outputs": [
        {
          "internalType": "address",
          "name": "",
          "type": "address"
        }
      ],
      "stateMutability": "view",
      "type": "function"
    },
    {
      "inputs": [],
      "name": "getERC20TokenName",
      "outputs": [
        {
          "internalType": "string",
          "name": "",
          "type": "string"
        }
      ],
      "stateMutability": "view",
      "type": "function"
    },
    {
      "inputs": [],
      "name": "getERC20TokenTicker",
      "outputs": [
        {
          "internalType": "string",
          "name": "",
          "type": "string"
        }
      ],
      "stateMutability": "view",
      "type": "function"
    },
    {
      "inputs": [],
      "name": "getErc20Assets",
      "outputs": [
        {
          "internalType": "address[]",
          "name": "",
          "type": "address[]"
        }
      ],
      "stateMutability": "view",
      "type": "function"
    },
    {
      "inputs": [
        {
          "internalType": "address",
          "name": "_user",
          "type": "address"
        }
      ],
      "name": "getStake",
      "outputs": [
        {
          "internalType": "uint256",
          "name": "",
          "type": "uint256"
        }
      ],
      "stateMutability": "view",
      "type": "function"
    },
    {
      "inputs": [],
      "name": "getTokenAddress",
      "outputs": [
        {
          "internalType": "address",
          "name": "",
          "type": "address"
        }
      ],
      "stateMutability": "view",
      "type": "function"
    },
    {
      "inputs": [],
      "name": "getTokenPrice",
      "outputs": [
        {
          "internalType": "uint256",
          "name": "",
          "type": "uint256"
        }
      ],
      "stateMutability": "view",
      "type": "function"
    },
    {
      "inputs": [
        {
          "internalType": "address",
          "name": "_user",
          "type": "address"
        }
      ],
      "name": "getUserDeposit",
      "outputs": [
        {
          "internalType": "uint256",
          "name": "",
          "type": "uint256"
        }
      ],
      "stateMutability": "view",
      "type": "function"
    },
    {
      "inputs": [
        {
          "internalType": "string",
          "name": "_name",
          "type": "string"
        },
        {
          "internalType": "string",
          "name": "_ticker",
          "type": "string"
        },
        {
          "internalType": "uint256",
          "name": "_shares_amount",
          "type": "uint256"
        }
      ],
      "name": "initialize",
      "outputs": [],
      "stateMutability": "nonpayable",
      "type": "function"
    },
    {
      "inputs": [],
      "name": "initiator",
      "outputs": [
        {
          "internalType": "address",
          "name": "",
          "type": "address"
        }
      ],
      "stateMutability": "view",
      "type": "function"
    },
    {
      "inputs": [],
      "name": "nextStage",
      "outputs": [],
      "stateMutability": "nonpayable",
      "type": "function"
    },
    {
      "inputs": [
        {
          "internalType": "address",
          "name": "operator",
          "type": "address"
        },
        {
          "internalType": "address",
          "name": "from",
          "type": "address"
        },
        {
          "internalType": "uint256[]",
          "name": "ids",
          "type": "uint256[]"
        },
        {
          "internalType": "uint256[]",
          "name": "values",
          "type": "uint256[]"
        },
        {
          "internalType": "bytes",
          "name": "data",
          "type": "bytes"
        }
      ],
      "name": "onERC1155BatchReceived",
      "outputs": [
        {
          "internalType": "bytes4",
          "name": "",
          "type": "bytes4"
        }
      ],
      "stateMutability": "nonpayable",
      "type": "function"
    },
    {
      "inputs": [
        {
          "internalType": "address",
          "name": "operator",
          "type": "address"
        },
        {
          "internalType": "address",
          "name": "from",
          "type": "address"
        },
        {
          "internalType": "uint256",
          "name": "tokenId",
          "type": "uint256"
        },
        {
          "internalType": "uint256",
          "name": "value",
          "type": "uint256"
        },
        {
          "internalType": "bytes",
          "name": "data",
          "type": "bytes"
        }
      ],
      "name": "onERC1155Received",
      "outputs": [
        {
          "internalType": "bytes4",
          "name": "",
          "type": "bytes4"
        }
      ],
      "stateMutability": "nonpayable",
      "type": "function"
    },
    {
      "inputs": [
        {
          "internalType": "address",
          "name": "operator",
          "type": "address"
        },
        {
          "internalType": "address",
          "name": "from",
          "type": "address"
        },
        {
          "internalType": "uint256",
          "name": "tokenId",
          "type": "uint256"
        },
        {
          "internalType": "bytes",
          "name": "data",
          "type": "bytes"
        }
      ],
      "name": "onERC721Received",
      "outputs": [
        {
          "internalType": "bytes4",
          "name": "",
          "type": "bytes4"
        }
      ],
      "stateMutability": "nonpayable",
      "type": "function"
    },
    {
      "inputs": [],
      "name": "owner",
      "outputs": [
        {
          "internalType": "address",
          "name": "",
          "type": "address"
        }
      ],
      "stateMutability": "view",
      "type": "function"
    },
    {
      "inputs": [
        {
          "internalType": "address",
          "name": "_user",
          "type": "address"
        }
      ],
      "name": "recieveDeposit",
      "outputs": [],
      "stateMutability": "payable",
      "type": "function"
    },
    {
      "inputs": [],
      "name": "recieveTokenPayment",
      "outputs": [],
      "stateMutability": "payable",
      "type": "function"
    },
    {
      "inputs": [],
      "name": "renounceOwnership",
      "outputs": [],
      "stateMutability": "nonpayable",
      "type": "function"
    },
    {
      "inputs": [
        {
          "internalType": "address",
          "name": "_new_initiator",
          "type": "address"
        }
      ],
      "name": "setInitiator",
      "outputs": [],
      "stateMutability": "nonpayable",
      "type": "function"
    },
    {
      "inputs": [
        {
          "internalType": "uint256",
          "name": "_price",
          "type": "uint256"
        }
      ],
      "name": "setTokenPrice",
      "outputs": [],
      "stateMutability": "nonpayable",
      "type": "function"
    },
    {
      "inputs": [],
      "name": "stage",
      "outputs": [
        {
          "internalType": "enum Vault.Stages",
          "name": "",
          "type": "uint8"
        }
      ],
      "stateMutability": "view",
      "type": "function"
    },
    {
      "inputs": [
        {
          "internalType": "uint256",
          "name": "_amount",
          "type": "uint256"
        }
      ],
      "name": "stake",
      "outputs": [],
      "stateMutability": "nonpayable",
      "type": "function"
    },
    {
      "inputs": [
        {
          "internalType": "bytes4",
          "name": "interfaceId",
          "type": "bytes4"
        }
      ],
      "name": "supportsInterface",
      "outputs": [
        {
          "internalType": "bool",
          "name": "",
          "type": "bool"
        }
      ],
      "stateMutability": "view",
      "type": "function"
    },
    {
      "inputs": [],
      "name": "tokenToInitiator",
      "outputs": [],
      "stateMutability": "nonpayable",
      "type": "function"
    },
    {
      "inputs": [
        {
          "internalType": "address",
          "name": "newOwner",
          "type": "address"
        }
      ],
      "name": "transferOwnership",
      "outputs": [],
      "stateMutability": "nonpayable",
      "type": "function"
    },
    {
      "inputs": [
        {
          "internalType": "uint256",
          "name": "_amount",
          "type": "uint256"
        }
      ],
      "name": "transferToOracle",
      "outputs": [],
      "stateMutability": "nonpayable",
      "type": "function"
    },
    {
      "inputs": [
        {
          "internalType": "address",
          "name": "newImplementation",
          "type": "address"
        }
      ],
      "name": "upgradeTo",
      "outputs": [],
      "stateMutability": "nonpayable",
      "type": "function"
    },
    {
      "inputs": [
        {
          "internalType": "address",
          "name": "newImplementation",
          "type": "address"
        },
        {
          "internalType": "bytes",
          "name": "data",
          "type": "bytes"
        }
      ],
      "name": "upgradeToAndCall",
      "outputs": [],
      "stateMutability": "payable",
      "type": "function"
    },
    {
      "inputs": [
        {
          "internalType": "uint256",
          "name": "_amount",
          "type": "uint256"
        }
      ],
      "name": "withdrawDeposit",
      "outputs": [],
      "stateMutability": "nonpayable",
      "type": "function"
    },
    {
      "inputs": [],
      "name": "withdrawFinal",
      "outputs": [],
      "stateMutability": "nonpayable",
      "type": "function"
    }
  ],
  "bytecode": "0x60a06040523060601b60805260d8805461ff001916905534801561002257600080fd5b5060805160601c61429061005660003960008181610961015281816109a101528181610c4c0152610c8c01526142906000f3fe6080604052600436106101945760003560e01c806301ffc9a7146101995780630bcf70d9146101df57806310fe9ae81461020157806312065fe014610223578063150b7a02146102405780631d9a4bf21461027957806333289a461461029b5780633659cfe6146102bb57806346eba9b3146102db5780634b94f50e146102f05780634c3c2372146103055780634f1ef28614610327578063521ad8291461033a5780635aac895b1461035a5780635c39fcc11461036d578063624aa0fd1461038d5780636a61e5fc146103ab5780636e164e23146103cb578063715018a6146103eb5780637a7664601461040057806385a383d0146104205780638da5cb5b146104405780639ab1b484146104555780639ebb12501461046a578063a694fc3a1461047f578063b119490e1461049f578063b322e9a9146104bf578063b61b2c43146104d4578063bc197c81146104dc578063c040e6b81461050b578063c084b10b14610537578063d59dfd611461056d578063ee3743ab1461058d578063f23a6e61146105a2578063f2fde38b146105c2575b600080fd5b3480156101a557600080fd5b506101ca6101b4366004612324565b6001600160e01b0319166301ffc9a760e01b1490565b60405190151581526020015b60405180910390f35b3480156101eb57600080fd5b506101ff6101fa36600461241e565b6105e2565b005b34801561020d57600080fd5b50610216610697565b6040516101d691906124c1565b34801561022f57600080fd5b50475b6040519081526020016101d6565b34801561024c57600080fd5b5061026061025b3660046121c5565b6106e1565b6040516001600160e01b031990911681526020016101d6565b34801561028557600080fd5b5061028e610771565b6040516101d69190612557565b3480156102a757600080fd5b506101ff6102b636600461241e565b610808565b3480156102c757600080fd5b506101ff6102d63660046120f5565b610956565b3480156102e757600080fd5b506101ff610a1f565b3480156102fc57600080fd5b50610232610b7a565b34801561031157600080fd5b5061031a610bbb565b6040516101d691906125cc565b6101ff6103353660046122a6565b610c41565b34801561034657600080fd5b506101ff61035536600461244e565b610cfb565b6101ff6103683660046120f5565b610d64565b34801561037957600080fd5b5060c954610216906001600160a01b031681565b34801561039957600080fd5b5060d6546001600160a01b0316610216565b3480156103b757600080fd5b506101ff6103c636600461241e565b610e88565b3480156103d757600080fd5b506101ff6103e636600461244e565b610efc565b3480156103f757600080fd5b506101ff61107f565b34801561040c57600080fd5b5061023261041b3660046120f5565b6110ba565b34801561042c57600080fd5b506101ff61043b3660046120f5565b611110565b34801561044c57600080fd5b5061021661120e565b34801561046157600080fd5b506101ff61121d565b34801561047657600080fd5b506101ff611487565b34801561048b57600080fd5b506101ff61049a36600461241e565b61157c565b3480156104ab57600080fd5b506101ff6104ba3660046123b5565b61176f565b3480156104cb57600080fd5b5061031a61189e565b6101ff6118e3565b3480156104e857600080fd5b506102606104f736600461210f565b63bc197c8160e01b98975050505050505050565b34801561051757600080fd5b5060d85461052a90610100900460ff1681565b6040516101d691906125a4565b34801561054357600080fd5b506102326105523660046120f5565b6001600160a01b0316600090815260cb602052604090205490565b34801561057957600080fd5b506101ff6105883660046120f5565b611959565b34801561059957600080fd5b506101ff6119b7565b3480156105ae57600080fd5b506102606105bd366004612231565b611a68565b3480156105ce57600080fd5b506101ff6105dd3660046120f5565b611afb565b60c9546001600160a01b031633146106155760405162461bcd60e51b815260040161060c90612660565b60405180910390fd5b60c9546040516001600160a01b039091169082156108fc029083906000818181858888f1935050505015801561064f573d6000803e3d6000fd5b5060c9546040518281526001600160a01b039091169030907fec81baf44a01b9ebf929a2549dea1929ade755e2c39675465b7b7af5681adaa99060200160405180910390a350565b600060038060d854610100900460ff1660048111156106c657634e487b7160e01b600052602160045260246000fd5b146106d057600080fd5b505060cf546001600160a01b031690565b600060018060d854610100900460ff16600481111561071057634e487b7160e01b600052602160045260246000fd5b1461071a57600080fd5b60cf8054336001600160a01b03199182161790915560d080549091166001600160a01b03881617905560d185905560d2805460ff19166001179055630a85bd0160e11b91506107676119e1565b5095945050505050565b606060018060d854610100900460ff1660048111156107a057634e487b7160e01b600052602160045260246000fd5b146107aa57600080fd5b60ce8054604080516020808402820181019092528281529291908301828280156107fd57602002820191906000526020600020905b81546001600160a01b031681526001909101906020018083116107df575b505050505091505090565b60008060d854610100900460ff16600481111561083557634e487b7160e01b600052602160045260246000fd5b1461083f57600080fd5b33600090815260cb60205260409020546108955760405162461bcd60e51b8152602060048201526017602482015276151a19481d5cd95c881a185cc81b9bc819195c1bdcda5d604a1b604482015260640161060c565b33600090815260cb60205260409020548211156109005760405162461bcd60e51b8152602060048201526024808201527f4e6f7420656e6f756768206465706f736974206f6e207573657227732062616c604482015263616e636560e01b606482015260840161060c565b33600090815260cb60205260408120805484929061091f908490612828565b9091555050604051339083156108fc029084906000818181858888f19350505050158015610951573d6000803e3d6000fd5b505050565b306001600160a01b037f000000000000000000000000000000000000000000000000000000000000000016141561099f5760405162461bcd60e51b815260040161060c90612626565b7f00000000000000000000000000000000000000000000000000000000000000006001600160a01b03166109d1611b98565b6001600160a01b0316146109f75760405162461bcd60e51b815260040161060c906126bd565b610a0081611bb4565b60408051600080825260208201909252610a1c91839190611be3565b50565b60038060d854610100900460ff166004811115610a4c57634e487b7160e01b600052602160045260246000fd5b14610a5657600080fd5b60c9546001600160a01b03163314610a805760405162461bcd60e51b815260040161060c90612660565b60d25460ff1660011415610b005760cf5460c95460d154604051632142170760e11b81526001600160a01b039384169384936342842e0e93610aca933093909216916004016124d5565b600060405180830381600087803b158015610ae457600080fd5b505af1158015610af8573d6000803e3d6000fd5b505050505050565b60cf5460c95460d154604051637921219560e11b81526001600160a01b0393841693606093859363f242432a93610b4393309316919060019088906004016124f9565b600060405180830381600087803b158015610b5d57600080fd5b505af1158015610b71573d6000803e3d6000fd5b50505050505050565b600060038060d854610100900460ff166004811115610ba957634e487b7160e01b600052602160045260246000fd5b14610bb357600080fd5b505060d35490565b60d654604080516306fdde0360e01b815290516060926001600160a01b0316916306fdde03916004808301926000929190829003018186803b158015610c0057600080fd5b505afa158015610c14573d6000803e3d6000fd5b505050506040513d6000823e601f3d908101601f19168201604052610c3c919081019061234c565b905090565b306001600160a01b037f0000000000000000000000000000000000000000000000000000000000000000161415610c8a5760405162461bcd60e51b815260040161060c90612626565b7f00000000000000000000000000000000000000000000000000000000000000006001600160a01b0316610cbc611b98565b6001600160a01b031614610ce25760405162461bcd60e51b815260040161060c906126bd565b610ceb82611bb4565b610cf782826001611be3565b5050565b60018060d854610100900460ff166004811115610d2857634e487b7160e01b600052602160045260246000fd5b14610d3257600080fd5b6001600160a01b038216600090815260cc602052604081208054859290610d5a9084906127d1565b9091555050505050565b60008060d854610100900460ff166004811115610d9157634e487b7160e01b600052602160045260246000fd5b14610d9b57600080fd5b6001600160a01b038216600090815260cb6020526040902054610e045760ca80546001810182556000919091527f42d72674974f694b5f5159593243114d38a5c39c89d6b62fee061ff523240ee10180546001600160a01b0319166001600160a01b0384161790555b3460d76000828254610e1691906127d1565b90915550506001600160a01b038216600090815260cb602052604081208054349290610e439084906127d1565b90915550506040517f83df459d706116d1b3f1c7b7f77cfea4c635275f5d1e1a53827f536ef48db77d90610e7c903090859034906124d5565b60405180910390a15050565b60c9546001600160a01b03163314610eb25760405162461bcd60e51b815260040161060c90612660565b60038060d854610100900460ff166004811115610edf57634e487b7160e01b600052602160045260246000fd5b14610ee957600080fd5b5060d35560d8805460ff19166001179055565b60018060d854610100900460ff166004811115610f2957634e487b7160e01b600052602160045260246000fd5b14610f3357600080fd5b336001600160a01b03831614610f4857600080fd5b6001600160a01b038216600090815260cc602052604090205483811015610ff35760d65460405163a9059cbb60e01b81526001600160a01b039091169063a9059cbb90610f9b908690859060040161253e565b602060405180830381600087803b158015610fb557600080fd5b505af1158015610fc9573d6000803e3d6000fd5b505050506040513d601f19601f82011682018060405250810190610fed9190612304565b50611079565b60d65460405163a9059cbb60e01b81526001600160a01b039091169063a9059cbb90611025908690889060040161253e565b602060405180830381600087803b15801561103f57600080fd5b505af1158015611053573d6000803e3d6000fd5b505050506040513d601f19601f820116820180604052508101906110779190612304565b505b50505050565b3361108861120e565b6001600160a01b0316146110ae5760405162461bcd60e51b815260040161060c90612745565b6110b86000611d23565b565b600060018060d854610100900460ff1660048111156110e957634e487b7160e01b600052602160045260246000fd5b146110f357600080fd5b50506001600160a01b0316600090815260cc602052604090205490565b3361111961120e565b6001600160a01b03161461113f5760405162461bcd60e51b815260040161060c90612745565b6001600160a01b038116600090815260cd602052604090205460ff16156111a75760405162461bcd60e51b815260206004820152601c60248201527b151a1a5cc8185cdcd95d081a5cc8185b1c9958591e481b1bd8dad95960221b604482015260640161060c565b60ce805460018181019092557fd36cd1c74ef8d7326d8021b776c18fb5a5724b7f7bc93c2f42e43e10ef27d12a0180546001600160a01b039093166001600160a01b031990931683179055600091825260cd6020526040909120805460ff19169091179055565b6033546001600160a01b031690565b60018060d854610100900460ff16600481111561124a57634e487b7160e01b600052602160045260246000fd5b1461125457600080fd5b3361125d61120e565b6001600160a01b0316146112835760405162461bcd60e51b815260040161060c90612745565b60d75460d654604080516318160ddd60e01b81529051600093926001600160a01b0316916318160ddd916004808301926020929190829003018186803b1580156112cc57600080fd5b505afa1580156112e0573d6000803e3d6000fd5b505050506040513d601f19601f820116820180604052508101906113049190612436565b61130e91906127e9565b60d654604080516318160ddd60e01b815290519293506001600160a01b039091169163095ea7b391309184916318160ddd916004808301926020929190829003018186803b15801561135f57600080fd5b505afa158015611373573d6000803e3d6000fd5b505050506040513d601f19601f820116820180604052508101906113979190612436565b6040518363ffffffff1660e01b81526004016113b492919061253e565b602060405180830381600087803b1580156113ce57600080fd5b505af11580156113e2573d6000803e3d6000fd5b505050506040513d601f19601f820116820180604052508101906114069190612304565b5060005b60ca5481101561095157600060ca828154811061143757634e487b7160e01b600052603260045260246000fd5b60009182526020808320909101546001600160a01b031680835260cb9091526040909120549091506114749061146e908590612809565b82610cfb565b508061147f8161286b565b91505061140a565b60048060d854610100900460ff1660048111156114b457634e487b7160e01b600052602160045260246000fd5b146114be57600080fd5b33600090815260cb602052604090205461151a5760405162461bcd60e51b815260206004820152601f60248201527f546869732075736572206973206e6f742061207061727469636970616e742e00604482015260640161060c565b33600090815260cb602052604081205460d75461153791906127e9565b905060008160cf6006015461154c91906127e9565b604051909150339082156108fc029083906000818181858888f19350505050158015611079573d6000803e3d6000fd5b60018060d854610100900460ff1660048111156115a957634e487b7160e01b600052602160045260246000fd5b146115b357600080fd5b60d654604051636eb1769f60e11b815233600482015230602482015283916001600160a01b03169063dd62ed3e9060440160206040518083038186803b1580156115fc57600080fd5b505afa158015611610573d6000803e3d6000fd5b505050506040513d601f19601f820116820180604052508101906116349190612436565b10156116c05760d65460405163095ea7b360e01b81526001600160a01b039091169063095ea7b39061166c903090869060040161253e565b602060405180830381600087803b15801561168657600080fd5b505af115801561169a573d6000803e3d6000fd5b505050506040513d601f19601f820116820180604052508101906116be9190612304565b505b60d6546040516323b872dd60e01b81526001600160a01b03909116906323b872dd906116f4903390309087906004016124d5565b602060405180830381600087803b15801561170e57600080fd5b505af1158015611722573d6000803e3d6000fd5b505050506040513d601f19601f820116820180604052508101906117469190612304565b5033600090815260cc6020526040812080548492906117669084906127d1565b90915550505050565b600054610100900460ff1680611788575060005460ff16155b6117a45760405162461bcd60e51b815260040161060c906126f7565b600054610100900460ff161580156117c6576000805461ffff19166101011790555b6117ce611d75565b6040516117da90611fe7565b604051809103906000f0801580156117f6573d6000803e3d6000fd5b5060d680546001600160a01b0319166001600160a01b03929092169182179055604051635e9d09fb60e11b815263bd3a13f69061183d9087908790879030906004016125df565b600060405180830381600087803b15801561185757600080fd5b505af115801561186b573d6000803e3d6000fd5b505060d6546001600160a01b03169150611886905081611110565b508015611079576000805461ff001916905550505050565b60d654604080516395d89b4160e01b815290516060926001600160a01b0316916395d89b41916004808301926000929190829003018186803b158015610c0057600080fd5b60038060d854610100900460ff16600481111561191057634e487b7160e01b600052602160045260246000fd5b1461191a57600080fd5b60c9546001600160a01b031633146119445760405162461bcd60e51b815260040161060c90612660565b61194e34476127d1565b60d555610a1c6119e1565b3361196261120e565b6001600160a01b0316146119885760405162461bcd60e51b815260040161060c90612745565b6001600160a01b03811615610a1c5760c980546001600160a01b0383166001600160a01b031990911617905550565b60c9546001600160a01b031633146119e15760405162461bcd60e51b815260040161060c90612660565b60d854610100900460ff166004811115611a0b57634e487b7160e01b600052602160045260246000fd5b611a169060016127d1565b6004811115611a3557634e487b7160e01b600052602160045260246000fd5b60d8805461ff001916610100836004811115611a6157634e487b7160e01b600052602160045260246000fd5b0217905550565b600060018060d854610100900460ff166004811115611a9757634e487b7160e01b600052602160045260246000fd5b14611aa157600080fd5b60cf80546001600160a01b0319908116331790915560d080546001600160a01b038a16921691909117905560d186905560d2805460ff1916600217905563f23a6e6160e01b9150611af06119e1565b509695505050505050565b33611b0461120e565b6001600160a01b031614611b2a5760405162461bcd60e51b815260040161060c90612745565b6001600160a01b038116611b8f5760405162461bcd60e51b815260206004820152602660248201527f4f776e61626c653a206e6577206f776e657220697320746865207a65726f206160448201526564647265737360d01b606482015260840161060c565b610a1c81611d23565b600080516020614214833981519152546001600160a01b031690565b33611bbd61120e565b6001600160a01b031614610a1c5760405162461bcd60e51b815260040161060c90612745565b6000611bed611b98565b9050611bf884611de9565b600083511180611c055750815b15611c1657611c148484611e7c565b505b7f4910fdfa16fed3260ed0e7147f7cc6da11a60208b5b9406d12a635614ffd9143805460ff1661107757805460ff19166001178155604051611c91908690611c629085906024016124c1565b60408051601f198184030181529190526020810180516001600160e01b0316631b2ce7f360e11b179052611e7c565b50805460ff19168155611ca2611b98565b6001600160a01b0316826001600160a01b031614611d1a5760405162461bcd60e51b815260206004820152602f60248201527f45524331393637557067726164653a207570677261646520627265616b73206660448201526e75727468657220757067726164657360881b606482015260840161060c565b61107785611f67565b603380546001600160a01b038381166001600160a01b0319831681179093556040519116919082907f8be0079c531659141344cd1fd0a4f28419497f9722a3daafe3b4186f6b6457e090600090a35050565b600054610100900460ff1680611d8e575060005460ff16155b611daa5760405162461bcd60e51b815260040161060c906126f7565b600054610100900460ff16158015611dcc576000805461ffff19166101011790555b611dd533611d23565b8015610a1c576000805461ff001916905550565b803b611e4d5760405162461bcd60e51b815260206004820152602d60248201527f455243313936373a206e657720696d706c656d656e746174696f6e206973206e60448201526c1bdd08184818dbdb9d1c9858dd609a1b606482015260840161060c565b60008051602061421483398151915280546001600160a01b0319166001600160a01b0392909216919091179055565b6060823b611edb5760405162461bcd60e51b815260206004820152602660248201527f416464726573733a2064656c65676174652063616c6c20746f206e6f6e2d636f6044820152651b9d1c9858dd60d21b606482015260840161060c565b600080846001600160a01b031684604051611ef691906124a5565b600060405180830381855af49150503d8060008114611f31576040519150601f19603f3d011682016040523d82523d6000602084013e611f36565b606091505b5091509150611f5e828260405180606001604052806027815260200161423460279139611fa7565b95945050505050565b611f7081611de9565b6040516001600160a01b038216907fbc7cd75a20ee27fd9adebab32041f755214dbc6bffa90cc0225b39da2e5c2d3b90600090a250565b60608315611fb6575081611fe0565b825115611fc65782518084602001fd5b8160405162461bcd60e51b815260040161060c91906125cc565b9392505050565b611941806128b383390190565b6000612007612002846127aa565b61277a565b905082815283838301111561201b57600080fd5b828260208301376000602084830101529392505050565b80356001600160a01b038116811461204957600080fd5b919050565b60008083601f84011261205f578182fd5b5081356001600160401b03811115612075578182fd5b6020830191508360208260051b850101111561209057600080fd5b9250929050565b60008083601f8401126120a8578182fd5b5081356001600160401b038111156120be578182fd5b60208301915083602082850101111561209057600080fd5b600082601f8301126120e6578081fd5b611fe083833560208501611ff4565b600060208284031215612106578081fd5b611fe082612032565b60008060008060008060008060a0898b03121561212a578384fd5b61213389612032565b975061214160208a01612032565b965060408901356001600160401b038082111561215c578586fd5b6121688c838d0161204e565b909850965060608b0135915080821115612180578586fd5b61218c8c838d0161204e565b909650945060808b01359150808211156121a4578384fd5b506121b18b828c01612097565b999c989b5096995094979396929594505050565b6000806000806000608086880312156121dc578081fd5b6121e586612032565b94506121f360208701612032565b93506040860135925060608601356001600160401b03811115612214578182fd5b61222088828901612097565b969995985093965092949392505050565b60008060008060008060a08789031215612249578182fd5b61225287612032565b955061226060208801612032565b9450604087013593506060870135925060808701356001600160401b03811115612288578283fd5b61229489828a01612097565b979a9699509497509295939492505050565b600080604083850312156122b8578182fd5b6122c183612032565b915060208301356001600160401b038111156122db578182fd5b8301601f810185136122eb578182fd5b6122fa85823560208401611ff4565b9150509250929050565b600060208284031215612315578081fd5b81518015158114611fe0578182fd5b600060208284031215612335578081fd5b81356001600160e01b031981168114611fe0578182fd5b60006020828403121561235d578081fd5b81516001600160401b03811115612372578182fd5b8201601f81018413612382578182fd5b8051612390612002826127aa565b8181528560208385010111156123a4578384fd5b611f5e82602083016020860161283f565b6000806000606084860312156123c9578283fd5b83356001600160401b03808211156123df578485fd5b6123eb878388016120d6565b94506020860135915080821115612400578384fd5b5061240d868287016120d6565b925050604084013590509250925092565b60006020828403121561242f578081fd5b5035919050565b600060208284031215612447578081fd5b5051919050565b60008060408385031215612460578182fd5b8235915061247060208401612032565b90509250929050565b6000815180845261249181602086016020860161283f565b601f01601f19169290920160200192915050565b600082516124b781846020870161283f565b9190910192915050565b6001600160a01b0391909116815260200190565b6001600160a01b039384168152919092166020820152604081019190915260600190565b6001600160a01b03868116825285166020820152604081018490526060810183905260a06080820181905260009061253390830184612479565b979650505050505050565b6001600160a01b03929092168252602082015260400190565b6020808252825182820181905260009190848201906040850190845b818110156125985783516001600160a01b031683529284019291840191600101612573565b50909695505050505050565b60208101600583106125c657634e487b7160e01b600052602160045260246000fd5b91905290565b602081526000611fe06020830184612479565b6080815260006125f26080830187612479565b82810360208401526126048187612479565b604084019590955250506001600160a01b039190911660609091015292915050565b6020808252602c908201526000805160206141f483398151915260408201526b19195b1959d85d1958d85b1b60a21b606082015260800190565b6020808252603f908201527f546f2072756e2074686973206d6574686f6420796f75206e65656420746f206260408201527f6520616e20696e69746961746f72206f662074686520636f6e74726163742e00606082015260800190565b6020808252602c908201526000805160206141f483398151915260408201526b6163746976652070726f787960a01b606082015260800190565b6020808252602e908201527f496e697469616c697a61626c653a20636f6e747261637420697320616c72656160408201526d191e481a5b9a5d1a585b1a5e995960921b606082015260800190565b6020808252818101527f4f776e61626c653a2063616c6c6572206973206e6f7420746865206f776e6572604082015260600190565b604051601f8201601f191681016001600160401b03811182821017156127a2576127a261289c565b604052919050565b60006001600160401b038211156127c3576127c361289c565b50601f01601f191660200190565b600082198211156127e4576127e4612886565b500190565b60008261280457634e487b7160e01b81526012600452602481fd5b500490565b600081600019048311821515161561282357612823612886565b500290565b60008282101561283a5761283a612886565b500390565b60005b8381101561285a578181015183820152602001612842565b838111156110795750506000910152565b600060001982141561287f5761287f612886565b5060010190565b634e487b7160e01b600052601160045260246000fd5b634e487b7160e01b600052604160045260246000fdfe60a06040523060601b60805234801561001757600080fd5b5060805160601c6118f661004b600039600081816104b6015281816104f6015281816105f8015261063801526118f66000f3fe6080604052600436106100d95760003560e01c806306fdde03146100de578063095ea7b31461010957806318160ddd1461013957806323b872dd14610158578063313ce567146101785780633659cfe61461019457806339509351146101b657806340c10f19146101d65780634f1ef286146101f657806370a0823114610209578063715018a61461023f5780638da5cb5b1461025457806395d89b4114610276578063a457c2d71461028b578063a9059cbb146102ab578063bd3a13f6146102cb578063dd62ed3e146102eb578063f2fde38b14610331575b600080fd5b3480156100ea57600080fd5b506100f3610351565b6040516101009190611557565b60405180910390f35b34801561011557600080fd5b50610129610124366004611484565b6103e3565b6040519015158152602001610100565b34801561014557600080fd5b506035545b604051908152602001610100565b34801561016457600080fd5b506101296101733660046113eb565b6103fa565b34801561018457600080fd5b5060405160128152602001610100565b3480156101a057600080fd5b506101b46101af36600461139f565b6104ab565b005b3480156101c257600080fd5b506101296101d1366004611484565b610574565b3480156101e257600080fd5b506101b46101f1366004611484565b6105b0565b6101b4610204366004611426565b6105ed565b34801561021557600080fd5b5061014a61022436600461139f565b6001600160a01b031660009081526033602052604090205490565b34801561024b57600080fd5b506101b46106a3565b34801561026057600080fd5b506102696106de565b6040516101009190611543565b34801561028257600080fd5b506100f36106ed565b34801561029757600080fd5b506101296102a6366004611484565b6106fc565b3480156102b757600080fd5b506101296102c6366004611484565b610795565b3480156102d757600080fd5b506101b46102e63660046114ad565b6107a2565b3480156102f757600080fd5b5061014a6103063660046113b9565b6001600160a01b03918216600090815260346020908152604080832093909416825291909152205490565b34801561033d57600080fd5b506101b461034c36600461139f565b610843565b606060368054610360906117d2565b80601f016020809104026020016040519081016040528092919081815260200182805461038c906117d2565b80156103d95780601f106103ae576101008083540402835291602001916103d9565b820191906000526020600020905b8154815290600101906020018083116103bc57829003601f168201915b5050505050905090565b60006103f03384846108e0565b5060015b92915050565b6000610407848484610a04565b6001600160a01b0384166000908152603460209081526040808320338452909152902054828110156104915760405162461bcd60e51b815260206004820152602860248201527f45524332303a207472616e7366657220616d6f756e74206578636565647320616044820152676c6c6f77616e636560c01b60648201526084015b60405180910390fd5b61049e85338584036108e0565b60019150505b9392505050565b306001600160a01b037f00000000000000000000000000000000000000000000000000000000000000001614156104f45760405162461bcd60e51b81526004016104889061158a565b7f00000000000000000000000000000000000000000000000000000000000000006001600160a01b0316610526610bc2565b6001600160a01b03161461054c5760405162461bcd60e51b8152600401610488906115c4565b61055581610bde565b6040805160008082526020820190925261057191839190610c0d565b50565b3360008181526034602090815260408083206001600160a01b038716845290915281205490916103f09185906105ab908690611681565b6108e0565b336105b96106de565b6001600160a01b0316146105df5760405162461bcd60e51b81526004016104889061164c565b6105e98282610d4d565b5050565b306001600160a01b037f00000000000000000000000000000000000000000000000000000000000000001614156106365760405162461bcd60e51b81526004016104889061158a565b7f00000000000000000000000000000000000000000000000000000000000000006001600160a01b0316610668610bc2565b6001600160a01b03161461068e5760405162461bcd60e51b8152600401610488906115c4565b61069782610bde565b6105e982826001610c0d565b336106ac6106de565b6001600160a01b0316146106d25760405162461bcd60e51b81526004016104889061164c565b6106dc6000610e1a565b565b6065546001600160a01b031690565b606060378054610360906117d2565b3360009081526034602090815260408083206001600160a01b03861684529091528120548281101561077e5760405162461bcd60e51b815260206004820152602560248201527f45524332303a2064656372656173656420616c6c6f77616e63652062656c6f77604482015264207a65726f60d81b6064820152608401610488565b61078b33858584036108e0565b5060019392505050565b60006103f0338484610a04565b600054610100900460ff16806107bb575060005460ff16155b6107d75760405162461bcd60e51b8152600401610488906115fe565b600054610100900460ff161580156107f9576000805461ffff19166101011790555b6108038585610e6c565b61080b610eec565b61082a8261081b6012600a6116dc565b6108259086611787565b610d4d565b801561083c576000805461ff00191690555b5050505050565b3361084c6106de565b6001600160a01b0316146108725760405162461bcd60e51b81526004016104889061164c565b6001600160a01b0381166108d75760405162461bcd60e51b815260206004820152602660248201527f4f776e61626c653a206e6577206f776e657220697320746865207a65726f206160448201526564647265737360d01b6064820152608401610488565b61057181610e1a565b6001600160a01b0383166109425760405162461bcd60e51b8152602060048201526024808201527f45524332303a20617070726f76652066726f6d20746865207a65726f206164646044820152637265737360e01b6064820152608401610488565b6001600160a01b0382166109a35760405162461bcd60e51b815260206004820152602260248201527f45524332303a20617070726f766520746f20746865207a65726f206164647265604482015261737360f01b6064820152608401610488565b6001600160a01b0383811660008181526034602090815260408083209487168084529482529182902085905590518481527f8c5be1e5ebec7d5bd14f71427d1e84f3dd0314c0f7b2291e5b200ac8c7c3b925910160405180910390a3505050565b6001600160a01b038316610a685760405162461bcd60e51b815260206004820152602560248201527f45524332303a207472616e736665722066726f6d20746865207a65726f206164604482015264647265737360d81b6064820152608401610488565b6001600160a01b038216610aca5760405162461bcd60e51b815260206004820152602360248201527f45524332303a207472616e7366657220746f20746865207a65726f206164647260448201526265737360e81b6064820152608401610488565b6001600160a01b03831660009081526033602052604090205481811015610b425760405162461bcd60e51b815260206004820152602660248201527f45524332303a207472616e7366657220616d6f756e7420657863656564732062604482015265616c616e636560d01b6064820152608401610488565b6001600160a01b03808516600090815260336020526040808220858503905591851681529081208054849290610b79908490611681565b92505081905550826001600160a01b0316846001600160a01b03166000805160206118a183398151915284604051610bb391815260200190565b60405180910390a35b50505050565b60008051602061185a833981519152546001600160a01b031690565b33610be76106de565b6001600160a01b0316146105715760405162461bcd60e51b81526004016104889061164c565b6000610c17610bc2565b9050610c2284610f60565b600083511180610c2f5750815b15610c4057610c3e8484610ff3565b505b7f4910fdfa16fed3260ed0e7147f7cc6da11a60208b5b9406d12a635614ffd9143805460ff1661083c57805460ff19166001178155604051610cbb908690610c8c908590602401611543565b60408051601f198184030181529190526020810180516001600160e01b0316631b2ce7f360e11b179052610ff3565b50805460ff19168155610ccc610bc2565b6001600160a01b0316826001600160a01b031614610d445760405162461bcd60e51b815260206004820152602f60248201527f45524331393637557067726164653a207570677261646520627265616b73206660448201526e75727468657220757067726164657360881b6064820152608401610488565b61083c856110de565b6001600160a01b038216610da35760405162461bcd60e51b815260206004820152601f60248201527f45524332303a206d696e7420746f20746865207a65726f2061646472657373006044820152606401610488565b8060356000828254610db59190611681565b90915550506001600160a01b03821660009081526033602052604081208054839290610de2908490611681565b90915550506040518181526001600160a01b038316906000906000805160206118a18339815191529060200160405180910390a35050565b606580546001600160a01b038381166001600160a01b0319831681179093556040519116919082907f8be0079c531659141344cd1fd0a4f28419497f9722a3daafe3b4186f6b6457e090600090a35050565b600054610100900460ff1680610e85575060005460ff16155b610ea15760405162461bcd60e51b8152600401610488906115fe565b600054610100900460ff16158015610ec3576000805461ffff19166101011790555b610ecb61111e565b610ed58383611188565b8015610ee7576000805461ff00191690555b505050565b600054610100900460ff1680610f05575060005460ff16155b610f215760405162461bcd60e51b8152600401610488906115fe565b600054610100900460ff16158015610f43576000805461ffff19166101011790555b610f4c33610e1a565b8015610571576000805461ff001916905550565b803b610fc45760405162461bcd60e51b815260206004820152602d60248201527f455243313936373a206e657720696d706c656d656e746174696f6e206973206e60448201526c1bdd08184818dbdb9d1c9858dd609a1b6064820152608401610488565b60008051602061185a83398151915280546001600160a01b0319166001600160a01b0392909216919091179055565b6060823b6110525760405162461bcd60e51b815260206004820152602660248201527f416464726573733a2064656c65676174652063616c6c20746f206e6f6e2d636f6044820152651b9d1c9858dd60d21b6064820152608401610488565b600080846001600160a01b03168460405161106d9190611527565b600060405180830381855af49150503d80600081146110a8576040519150601f19603f3d011682016040523d82523d6000602084013e6110ad565b606091505b50915091506110d5828260405180606001604052806027815260200161187a6027913961121d565b95945050505050565b6110e781610f60565b6040516001600160a01b038216907fbc7cd75a20ee27fd9adebab32041f755214dbc6bffa90cc0225b39da2e5c2d3b90600090a250565b600054610100900460ff1680611137575060005460ff16155b6111535760405162461bcd60e51b8152600401610488906115fe565b600054610100900460ff16158015610f4c576000805461ffff19166101011790558015610571576000805461ff001916905550565b600054610100900460ff16806111a1575060005460ff16155b6111bd5760405162461bcd60e51b8152600401610488906115fe565b600054610100900460ff161580156111df576000805461ffff19166101011790555b82516111f2906036906020860190611256565b508151611206906037906020850190611256565b508015610ee7576000805461ff0019169055505050565b6060831561122c5750816104a4565b82511561123c5782518084602001fd5b8160405162461bcd60e51b81526004016104889190611557565b828054611262906117d2565b90600052602060002090601f01602090048101928261128457600085556112ca565b82601f1061129d57805160ff19168380011785556112ca565b828001600101855582156112ca579182015b828111156112ca5782518255916020019190600101906112af565b506112d69291506112da565b5090565b5b808211156112d657600081556001016112db565b60006001600160401b038084111561130957611309611823565b604051601f8501601f19908116603f0116810190828211818310171561133157611331611823565b8160405280935085815286868601111561134a57600080fd5b858560208301376000602087830101525050509392505050565b80356001600160a01b038116811461137b57600080fd5b919050565b600082601f830112611390578081fd5b6104a4838335602085016112ef565b6000602082840312156113b0578081fd5b6104a482611364565b600080604083850312156113cb578081fd5b6113d483611364565b91506113e260208401611364565b90509250929050565b6000806000606084860312156113ff578081fd5b61140884611364565b925061141660208501611364565b9150604084013590509250925092565b60008060408385031215611438578182fd5b61144183611364565b915060208301356001600160401b0381111561145b578182fd5b8301601f8101851361146b578182fd5b61147a858235602084016112ef565b9150509250929050565b60008060408385031215611496578182fd5b61149f83611364565b946020939093013593505050565b600080600080608085870312156114c2578081fd5b84356001600160401b03808211156114d8578283fd5b6114e488838901611380565b955060208701359150808211156114f9578283fd5b5061150687828801611380565b9350506040850135915061151c60608601611364565b905092959194509250565b600082516115398184602087016117a6565b9190910192915050565b6001600160a01b0391909116815260200190565b60208152600082518060208401526115768160408501602087016117a6565b601f01601f19169190910160400192915050565b6020808252602c9082015260008051602061183a83398151915260408201526b19195b1959d85d1958d85b1b60a21b606082015260800190565b6020808252602c9082015260008051602061183a83398151915260408201526b6163746976652070726f787960a01b606082015260800190565b6020808252602e908201527f496e697469616c697a61626c653a20636f6e747261637420697320616c72656160408201526d191e481a5b9a5d1a585b1a5e995960921b606082015260800190565b6020808252818101527f4f776e61626c653a2063616c6c6572206973206e6f7420746865206f776e6572604082015260600190565b600082198211156116945761169461180d565b500190565b600181815b808511156116d45781600019048211156116ba576116ba61180d565b808516156116c757918102915b93841c939080029061169e565b509250929050565b60006104a460ff8416836000826116f5575060016103f4565b81611702575060006103f4565b816001811461171857600281146117225761173e565b60019150506103f4565b60ff8411156117335761173361180d565b50506001821b6103f4565b5060208310610133831016604e8410600b8410161715611761575081810a6103f4565b61176b8383611699565b806000190482111561177f5761177f61180d565b029392505050565b60008160001904831182151516156117a1576117a161180d565b500290565b60005b838110156117c15781810151838201526020016117a9565b83811115610bbc5750506000910152565b600181811c908216806117e657607f821691505b6020821081141561180757634e487b7160e01b600052602260045260246000fd5b50919050565b634e487b7160e01b600052601160045260246000fd5b634e487b7160e01b600052604160045260246000fdfe46756e6374696f6e206d7573742062652063616c6c6564207468726f75676820360894a13ba1a3210667c828492db98dca3e2076cc3735a920a3ca505d382bbc416464726573733a206c6f772d6c6576656c2064656c65676174652063616c6c206661696c6564ddf252ad1be2c89b69c2b068fc378daa952ba7f163c4a11628f55a4df523b3efa26469706673582212202fc275b7baf53a5ddf3a4d13b727fe8e1b6366b4836eb4bc73d6359d89e985f464736f6c6343000804003346756e6374696f6e206d7573742062652063616c6c6564207468726f75676820360894a13ba1a3210667c828492db98dca3e2076cc3735a920a3ca505d382bbc416464726573733a206c6f772d6c6576656c2064656c65676174652063616c6c206661696c6564a2646970667358221220ff5fee368a1065a65f900682296a41f2c56e789b4892c620162bad0cde4f081b64736f6c63430008040033",
  "linkReferences": {},
  "deployedLinkReferences": {}
}