{
  "_format": "hh-sol-artifact-1",
  "contractName": "Mock1155",
  "sourceName": "contracts/Mock1155.sol",
  "abi": [
    {
      "inputs": [],
      "stateMutability": "nonpayable",
      "type": "constructor"
    },
    {
      "anonymous": false,
      "inputs": [
        {
          "indexed": true,
          "internalType": "address",
          "name": "account",
          "type": "address"
        },
        {
          "indexed": true,
          "internalType": "address",
          "name": "operator",
          "type": "address"
        },
        {
          "indexed": false,
          "internalType": "bool",
          "name": "approved",
          "type": "bool"
        }
      ],
      "name": "ApprovalForAll",
      "type": "event"
    },
    {
      "anonymous": false,
      "inputs": [
        {
          "indexed": true,
          "internalType": "address",
          "name": "operator",
          "type": "address"
        },
        {
          "indexed": true,
          "internalType": "address",
          "name": "from",
          "type": "address"
        },
        {
          "indexed": true,
          "internalType": "address",
          "name": "to",
          "type": "address"
        },
        {
          "indexed": false,
          "internalType": "uint256[]",
          "name": "ids",
          "type": "uint256[]"
        },
        {
          "indexed": false,
          "internalType": "uint256[]",
          "name": "values",
          "type": "uint256[]"
        }
      ],
      "name": "TransferBatch",
      "type": "event"
    },
    {
      "anonymous": false,
      "inputs": [
        {
          "indexed": true,
          "internalType": "address",
          "name": "operator",
          "type": "address"
        },
        {
          "indexed": true,
          "internalType": "address",
          "name": "from",
          "type": "address"
        },
        {
          "indexed": true,
          "internalType": "address",
          "name": "to",
          "type": "address"
        },
        {
          "indexed": false,
          "internalType": "uint256",
          "name": "id",
          "type": "uint256"
        },
        {
          "indexed": false,
          "internalType": "uint256",
          "name": "value",
          "type": "uint256"
        }
      ],
      "name": "TransferSingle",
      "type": "event"
    },
    {
      "anonymous": false,
      "inputs": [
        {
          "indexed": false,
          "internalType": "string",
          "name": "value",
          "type": "string"
        },
        {
          "indexed": true,
          "internalType": "uint256",
          "name": "id",
          "type": "uint256"
        }
      ],
      "name": "URI",
      "type": "event"
    },
    {
      "inputs": [],
      "name": "GOLD",
      "outputs": [
        {
          "internalType": "uint256",
          "name": "",
          "type": "uint256"
        }
      ],
      "stateMutability": "view",
      "type": "function"
    },
    {
      "inputs": [],
      "name": "THORS_HAMMER",
      "outputs": [
        {
          "internalType": "uint256",
          "name": "",
          "type": "uint256"
        }
      ],
      "stateMutability": "view",
      "type": "function"
    },
    {
      "inputs": [
        {
          "internalType": "address",
          "name": "player",
          "type": "address"
        }
      ],
      "name": "awardItems",
      "outputs": [],
      "stateMutability": "nonpayable",
      "type": "function"
    },
    {
      "inputs": [
        {
          "internalType": "address",
          "name": "account",
          "type": "address"
        },
        {
          "internalType": "uint256",
          "name": "id",
          "type": "uint256"
        }
      ],
      "name": "balanceOf",
      "outputs": [
        {
          "internalType": "uint256",
          "name": "",
          "type": "uint256"
        }
      ],
      "stateMutability": "view",
      "type": "function"
    },
    {
      "inputs": [
        {
          "internalType": "address[]",
          "name": "accounts",
          "type": "address[]"
        },
        {
          "internalType": "uint256[]",
          "name": "ids",
          "type": "uint256[]"
        }
      ],
      "name": "balanceOfBatch",
      "outputs": [
        {
          "internalType": "uint256[]",
          "name": "",
          "type": "uint256[]"
        }
      ],
      "stateMutability": "view",
      "type": "function"
    },
    {
      "inputs": [
        {
          "internalType": "address",
          "name": "account",
          "type": "address"
        },
        {
          "internalType": "address",
          "name": "operator",
          "type": "address"
        }
      ],
      "name": "isApprovedForAll",
      "outputs": [
        {
          "internalType": "bool",
          "name": "",
          "type": "bool"
        }
      ],
      "stateMutability": "view",
      "type": "function"
    },
    {
      "inputs": [
        {
          "internalType": "address",
          "name": "from",
          "type": "address"
        },
        {
          "internalType": "address",
          "name": "to",
          "type": "address"
        },
        {
          "internalType": "uint256[]",
          "name": "ids",
          "type": "uint256[]"
        },
        {
          "internalType": "uint256[]",
          "name": "amounts",
          "type": "uint256[]"
        },
        {
          "internalType": "bytes",
          "name": "data",
          "type": "bytes"
        }
      ],
      "name": "safeBatchTransferFrom",
      "outputs": [],
      "stateMutability": "nonpayable",
      "type": "function"
    },
    {
      "inputs": [
        {
          "internalType": "address",
          "name": "from",
          "type": "address"
        },
        {
          "internalType": "address",
          "name": "to",
          "type": "address"
        },
        {
          "internalType": "uint256",
          "name": "id",
          "type": "uint256"
        },
        {
          "internalType": "uint256",
          "name": "amount",
          "type": "uint256"
        },
        {
          "internalType": "bytes",
          "name": "data",
          "type": "bytes"
        }
      ],
      "name": "safeTransferFrom",
      "outputs": [],
      "stateMutability": "nonpayable",
      "type": "function"
    },
    {
      "inputs": [
        {
          "internalType": "address",
          "name": "operator",
          "type": "address"
        },
        {
          "internalType": "bool",
          "name": "approved",
          "type": "bool"
        }
      ],
      "name": "setApprovalForAll",
      "outputs": [],
      "stateMutability": "nonpayable",
      "type": "function"
    },
    {
      "inputs": [
        {
          "internalType": "bytes4",
          "name": "interfaceId",
          "type": "bytes4"
        }
      ],
      "name": "supportsInterface",
      "outputs": [
        {
          "internalType": "bool",
          "name": "",
          "type": "bool"
        }
      ],
      "stateMutability": "view",
      "type": "function"
    },
    {
      "inputs": [
        {
          "internalType": "uint256",
          "name": "",
          "type": "uint256"
        }
      ],
      "name": "uri",
      "outputs": [
        {
          "internalType": "string",
          "name": "",
          "type": "string"
        }
      ],
      "stateMutability": "view",
      "type": "function"
    }
  ],
  "bytecode": "0x60806040523480156200001157600080fd5b50604051806060016040528060278152602001620016e16027913962000037816200003e565b506200013a565b80516200005390600290602084019062000057565b5050565b8280546200006590620000fd565b90600052602060002090601f016020900481019282620000895760008555620000d4565b82601f10620000a457805160ff1916838001178555620000d4565b82800160010185558215620000d4579182015b82811115620000d4578251825591602001919060010190620000b7565b50620000e2929150620000e6565b5090565b5b80821115620000e25760008155600101620000e7565b600181811c908216806200011257607f821691505b602082108114156200013457634e487b7160e01b600052602260045260246000fd5b50919050565b611597806200014a6000396000f3fe608060405234801561001057600080fd5b50600436106100985760003560e01c8062fdd58e1461009d57806301ffc9a7146100c35780630e89341c146100e65780632eb2c2d6146101065780633e4bee381461011b5780634e1273f414610123578063a22cb46514610143578063b221fef414610156578063d562e20414610169578063e985e9c514610171578063f242432a146101ad575b600080fd5b6100b06100ab36600461100b565b6101c0565b6040519081526020015b60405180910390f35b6100d66100d13660046110fe565b610257565b60405190151581526020016100ba565b6100f96100f4366004611136565b6102a9565b6040516100ba91906112b7565b610119610114366004610eca565b61033d565b005b6100b0600081565b610136610131366004611034565b6103d4565b6040516100ba9190611276565b610119610151366004610fd1565b610535565b610119610164366004610e77565b610544565b6100b0600181565b6100d661017f366004610e98565b6001600160a01b03918216600090815260016020908152604080832093909416825291909152205460ff1690565b6101196101bb366004610f6f565b610587565b60006001600160a01b0383166102315760405162461bcd60e51b815260206004820152602b60248201527f455243313135353a2062616c616e636520717565727920666f7220746865207a60448201526a65726f206164647265737360a81b60648201526084015b60405180910390fd5b506000908152602081815260408083206001600160a01b03949094168352929052205490565b60006001600160e01b03198216636cdb3d1360e11b148061028857506001600160e01b031982166303a24d0760e21b145b806102a357506301ffc9a760e01b6001600160e01b03198316145b92915050565b6060600280546102b8906113dc565b80601f01602080910402602001604051908101604052809291908181526020018280546102e4906113dc565b80156103315780601f1061030657610100808354040283529160200191610331565b820191906000526020600020905b81548152906001019060200180831161031457829003601f168201915b50505050509050919050565b6001600160a01b0385163314806103595750610359853361017f565b6103c05760405162461bcd60e51b815260206004820152603260248201527f455243313135353a207472616e736665722063616c6c6572206973206e6f74206044820152711bdddb995c881b9bdc88185c1c1c9bdd995960721b6064820152608401610228565b6103cd858585858561060e565b5050505050565b606081518351146104395760405162461bcd60e51b815260206004820152602960248201527f455243313135353a206163636f756e747320616e6420696473206c656e677468604482015268040dad2e6dac2e8c6d60bb1b6064820152608401610228565b600083516001600160401b0381111561046257634e487b7160e01b600052604160045260246000fd5b60405190808252806020026020018201604052801561048b578160200160208202803683370190505b50905060005b845181101561052d576104f28582815181106104bd57634e487b7160e01b600052603260045260246000fd5b60200260200101518583815181106104e557634e487b7160e01b600052603260045260246000fd5b60200260200101516101c0565b82828151811061051257634e487b7160e01b600052603260045260246000fd5b602090810291909101015261052681611443565b9050610491565b509392505050565b610540338383610807565b5050565b610568816000670de0b6b3a7640000604051806020016040528060008152506108e8565b61058481600180604051806020016040528060008152506108e8565b50565b6001600160a01b0385163314806105a357506105a3853361017f565b6106015760405162461bcd60e51b815260206004820152602960248201527f455243313135353a2063616c6c6572206973206e6f74206f776e6572206e6f7260448201526808185c1c1c9bdd995960ba1b6064820152608401610228565b6103cd85858585856109e0565b81518351146106705760405162461bcd60e51b815260206004820152602860248201527f455243313135353a2069647320616e6420616d6f756e7473206c656e677468206044820152670dad2e6dac2e8c6d60c31b6064820152608401610228565b6001600160a01b0384166106965760405162461bcd60e51b815260040161022890611312565b3360005b84518110156107995760008582815181106106c557634e487b7160e01b600052603260045260246000fd5b6020026020010151905060008583815181106106f157634e487b7160e01b600052603260045260246000fd5b602090810291909101810151600084815280835260408082206001600160a01b038e1683529093529190912054909150818110156107415760405162461bcd60e51b815260040161022890611357565b6000838152602081815260408083206001600160a01b038e8116855292528083208585039055908b1682528120805484929061077e9084906113c4565b925050819055505050508061079290611443565b905061069a565b50846001600160a01b0316866001600160a01b0316826001600160a01b03167f4a39dc06d4c0dbc64b70af90fd698a233a518aa5d07e595d983b8c0526c8f7fb87876040516107e9929190611289565b60405180910390a46107ff818787878787610aeb565b505050505050565b816001600160a01b0316836001600160a01b0316141561087b5760405162461bcd60e51b815260206004820152602960248201527f455243313135353a2073657474696e6720617070726f76616c20737461747573604482015268103337b91039b2b63360b91b6064820152608401610228565b6001600160a01b03838116600081815260016020908152604080832094871680845294825291829020805460ff191686151590811790915591519182527f17307eab39ab6107e8899845ad3d59bd9653f200f220920489ca2b5937696c31910160405180910390a3505050565b6001600160a01b0384166109485760405162461bcd60e51b815260206004820152602160248201527f455243313135353a206d696e7420746f20746865207a65726f206164647265736044820152607360f81b6064820152608401610228565b336109628160008761095988610c56565b6103cd88610c56565b6000848152602081815260408083206001600160a01b0389168452909152812080548592906109929084906113c4565b909155505060408051858152602081018590526001600160a01b038088169260009291851691600080516020611542833981519152910160405180910390a46103cd81600087878787610caf565b6001600160a01b038416610a065760405162461bcd60e51b815260040161022890611312565b33610a1681878761095988610c56565b6000848152602081815260408083206001600160a01b038a16845290915290205483811015610a575760405162461bcd60e51b815260040161022890611357565b6000858152602081815260408083206001600160a01b038b8116855292528083208785039055908816825281208054869290610a949084906113c4565b909155505060408051868152602081018690526001600160a01b03808916928a82169291861691600080516020611542833981519152910160405180910390a4610ae2828888888888610caf565b50505050505050565b6001600160a01b0384163b156107ff5760405163bc197c8160e01b81526001600160a01b0385169063bc197c8190610b2f90899089908890889088906004016111d3565b602060405180830381600087803b158015610b4957600080fd5b505af1925050508015610b79575060408051601f3d908101601f19168201909252610b769181019061111a565b60015b610c2657610b8561148a565b806308c379a01415610bbf5750610b9a6114a2565b80610ba55750610bc1565b8060405162461bcd60e51b815260040161022891906112b7565b505b60405162461bcd60e51b815260206004820152603460248201527f455243313135353a207472616e7366657220746f206e6f6e20455243313135356044820152732932b1b2b4bb32b91034b6b83632b6b2b73a32b960611b6064820152608401610228565b6001600160e01b0319811663bc197c8160e01b14610ae25760405162461bcd60e51b8152600401610228906112ca565b60408051600180825281830190925260609160009190602080830190803683370190505090508281600081518110610c9e57634e487b7160e01b600052603260045260246000fd5b602090810291909101015292915050565b6001600160a01b0384163b156107ff5760405163f23a6e6160e01b81526001600160a01b0385169063f23a6e6190610cf39089908990889088908890600401611231565b602060405180830381600087803b158015610d0d57600080fd5b505af1925050508015610d3d575060408051601f3d908101601f19168201909252610d3a9181019061111a565b60015b610d4957610b8561148a565b6001600160e01b0319811663f23a6e6160e01b14610ae25760405162461bcd60e51b8152600401610228906112ca565b80356001600160a01b0381168114610d9057600080fd5b919050565b600082601f830112610da5578081fd5b81356020610db2826113a1565b604051610dbf8282611417565b8381528281019150858301600585901b87018401881015610dde578586fd5b855b85811015610dfc57813584529284019290840190600101610de0565b5090979650505050505050565b600082601f830112610e19578081fd5b81356001600160401b03811115610e3257610e32611474565b604051610e49601f8301601f191660200182611417565b818152846020838601011115610e5d578283fd5b816020850160208301379081016020019190915292915050565b600060208284031215610e88578081fd5b610e9182610d79565b9392505050565b60008060408385031215610eaa578081fd5b610eb383610d79565b9150610ec160208401610d79565b90509250929050565b600080600080600060a08688031215610ee1578081fd5b610eea86610d79565b9450610ef860208701610d79565b935060408601356001600160401b0380821115610f13578283fd5b610f1f89838a01610d95565b94506060880135915080821115610f34578283fd5b610f4089838a01610d95565b93506080880135915080821115610f55578283fd5b50610f6288828901610e09565b9150509295509295909350565b600080600080600060a08688031215610f86578081fd5b610f8f86610d79565b9450610f9d60208701610d79565b9350604086013592506060860135915060808601356001600160401b03811115610fc5578182fd5b610f6288828901610e09565b60008060408385031215610fe3578182fd5b610fec83610d79565b915060208301358015158114611000578182fd5b809150509250929050565b6000806040838503121561101d578182fd5b61102683610d79565b946020939093013593505050565b60008060408385031215611046578182fd5b82356001600160401b038082111561105c578384fd5b818501915085601f83011261106f578384fd5b8135602061107c826113a1565b6040516110898282611417565b8381528281019150858301600585901b870184018b10156110a8578889fd5b8896505b848710156110d1576110bd81610d79565b8352600196909601959183019183016110ac565b50965050860135925050808211156110e7578283fd5b506110f485828601610d95565b9150509250929050565b60006020828403121561110f578081fd5b8135610e918161152b565b60006020828403121561112b578081fd5b8151610e918161152b565b600060208284031215611147578081fd5b5035919050565b6000815180845260208085019450808401835b8381101561117d57815187529582019590820190600101611161565b509495945050505050565b60008151808452815b818110156111ad57602081850181015186830182015201611191565b818111156111be5782602083870101525b50601f01601f19169290920160200192915050565b6001600160a01b0386811682528516602082015260a0604082018190526000906111ff9083018661114e565b8281036060840152611211818661114e565b905082810360808401526112258185611188565b98975050505050505050565b6001600160a01b03868116825285166020820152604081018490526060810183905260a06080820181905260009061126b90830184611188565b979650505050505050565b602081526000610e91602083018461114e565b60408152600061129c604083018561114e565b82810360208401526112ae818561114e565b95945050505050565b602081526000610e916020830184611188565b60208082526028908201527f455243313135353a204552433131353552656365697665722072656a656374656040820152676420746f6b656e7360c01b606082015260800190565b60208082526025908201527f455243313135353a207472616e7366657220746f20746865207a65726f206164604082015264647265737360d81b606082015260800190565b6020808252602a908201527f455243313135353a20696e73756666696369656e742062616c616e636520666f60408201526939103a3930b739b332b960b11b606082015260800190565b60006001600160401b038211156113ba576113ba611474565b5060051b60200190565b600082198211156113d7576113d761145e565b500190565b600181811c908216806113f057607f821691505b6020821081141561141157634e487b7160e01b600052602260045260246000fd5b50919050565b601f8201601f191681016001600160401b038111828210171561143c5761143c611474565b6040525050565b60006000198214156114575761145761145e565b5060010190565b634e487b7160e01b600052601160045260246000fd5b634e487b7160e01b600052604160045260246000fd5b600060033d111561149f57600481823e5160e01c5b90565b600060443d10156114b05790565b6040516003193d81016004833e81513d6001600160401b0380831160248401831017156114df57505050505090565b82850191508151818111156114f75750505050505090565b843d87010160208285010111156115115750505050505090565b61152060208286010187611417565b509095945050505050565b6001600160e01b03198116811461058457600080fdfec3d58168c5ae7397731d063d5bbf3d657854427343f4c083240f7aacaa2d0f62a264697066735822122045a828bed1d3964b000a7bed20fcf669e148f9bd679fab9fde63e27e3f7f4dc364736f6c6343000804003368747470733a2f2f67616d652e6578616d706c652f6170692f6974656d2f7b69647d2e6a736f6e",
  "linkReferences": {},
  "deployedLinkReferences": {}
}