{
  "_format": "hh-sol-artifact-1",
  "contractName": "Mock1155",
  "sourceName": "contracts/Mock1155.sol",
  "abi": [
    {
      "inputs": [],
      "stateMutability": "nonpayable",
      "type": "constructor"
    },
    {
      "anonymous": false,
      "inputs": [
        {
          "indexed": true,
          "internalType": "address",
          "name": "account",
          "type": "address"
        },
        {
          "indexed": true,
          "internalType": "address",
          "name": "operator",
          "type": "address"
        },
        {
          "indexed": false,
          "internalType": "bool",
          "name": "approved",
          "type": "bool"
        }
      ],
      "name": "ApprovalForAll",
      "type": "event"
    },
    {
      "anonymous": false,
      "inputs": [
        {
          "indexed": true,
          "internalType": "address",
          "name": "operator",
          "type": "address"
        },
        {
          "indexed": true,
          "internalType": "address",
          "name": "from",
          "type": "address"
        },
        {
          "indexed": true,
          "internalType": "address",
          "name": "to",
          "type": "address"
        },
        {
          "indexed": false,
          "internalType": "uint256[]",
          "name": "ids",
          "type": "uint256[]"
        },
        {
          "indexed": false,
          "internalType": "uint256[]",
          "name": "values",
          "type": "uint256[]"
        }
      ],
      "name": "TransferBatch",
      "type": "event"
    },
    {
      "anonymous": false,
      "inputs": [
        {
          "indexed": true,
          "internalType": "address",
          "name": "operator",
          "type": "address"
        },
        {
          "indexed": true,
          "internalType": "address",
          "name": "from",
          "type": "address"
        },
        {
          "indexed": true,
          "internalType": "address",
          "name": "to",
          "type": "address"
        },
        {
          "indexed": false,
          "internalType": "uint256",
          "name": "id",
          "type": "uint256"
        },
        {
          "indexed": false,
          "internalType": "uint256",
          "name": "value",
          "type": "uint256"
        }
      ],
      "name": "TransferSingle",
      "type": "event"
    },
    {
      "anonymous": false,
      "inputs": [
        {
          "indexed": false,
          "internalType": "string",
          "name": "value",
          "type": "string"
        },
        {
          "indexed": true,
          "internalType": "uint256",
          "name": "id",
          "type": "uint256"
        }
      ],
      "name": "URI",
      "type": "event"
    },
    {
      "inputs": [],
      "name": "GOLD",
      "outputs": [
        {
          "internalType": "uint256",
          "name": "",
          "type": "uint256"
        }
      ],
      "stateMutability": "view",
      "type": "function"
    },
    {
      "inputs": [],
      "name": "THORS_HAMMER",
      "outputs": [
        {
          "internalType": "uint256",
          "name": "",
          "type": "uint256"
        }
      ],
      "stateMutability": "view",
      "type": "function"
    },
    {
      "inputs": [
        {
          "internalType": "address",
          "name": "account",
          "type": "address"
        },
        {
          "internalType": "uint256",
          "name": "id",
          "type": "uint256"
        }
      ],
      "name": "balanceOf",
      "outputs": [
        {
          "internalType": "uint256",
          "name": "",
          "type": "uint256"
        }
      ],
      "stateMutability": "view",
      "type": "function"
    },
    {
      "inputs": [
        {
          "internalType": "address[]",
          "name": "accounts",
          "type": "address[]"
        },
        {
          "internalType": "uint256[]",
          "name": "ids",
          "type": "uint256[]"
        }
      ],
      "name": "balanceOfBatch",
      "outputs": [
        {
          "internalType": "uint256[]",
          "name": "",
          "type": "uint256[]"
        }
      ],
      "stateMutability": "view",
      "type": "function"
    },
    {
      "inputs": [
        {
          "internalType": "address",
          "name": "account",
          "type": "address"
        },
        {
          "internalType": "address",
          "name": "operator",
          "type": "address"
        }
      ],
      "name": "isApprovedForAll",
      "outputs": [
        {
          "internalType": "bool",
          "name": "",
          "type": "bool"
        }
      ],
      "stateMutability": "view",
      "type": "function"
    },
    {
      "inputs": [
        {
          "internalType": "address",
          "name": "from",
          "type": "address"
        },
        {
          "internalType": "address",
          "name": "to",
          "type": "address"
        },
        {
          "internalType": "uint256[]",
          "name": "ids",
          "type": "uint256[]"
        },
        {
          "internalType": "uint256[]",
          "name": "amounts",
          "type": "uint256[]"
        },
        {
          "internalType": "bytes",
          "name": "data",
          "type": "bytes"
        }
      ],
      "name": "safeBatchTransferFrom",
      "outputs": [],
      "stateMutability": "nonpayable",
      "type": "function"
    },
    {
      "inputs": [
        {
          "internalType": "address",
          "name": "from",
          "type": "address"
        },
        {
          "internalType": "address",
          "name": "to",
          "type": "address"
        },
        {
          "internalType": "uint256",
          "name": "id",
          "type": "uint256"
        },
        {
          "internalType": "uint256",
          "name": "amount",
          "type": "uint256"
        },
        {
          "internalType": "bytes",
          "name": "data",
          "type": "bytes"
        }
      ],
      "name": "safeTransferFrom",
      "outputs": [],
      "stateMutability": "nonpayable",
      "type": "function"
    },
    {
      "inputs": [
        {
          "internalType": "address",
          "name": "operator",
          "type": "address"
        },
        {
          "internalType": "bool",
          "name": "approved",
          "type": "bool"
        }
      ],
      "name": "setApprovalForAll",
      "outputs": [],
      "stateMutability": "nonpayable",
      "type": "function"
    },
    {
      "inputs": [
        {
          "internalType": "bytes4",
          "name": "interfaceId",
          "type": "bytes4"
        }
      ],
      "name": "supportsInterface",
      "outputs": [
        {
          "internalType": "bool",
          "name": "",
          "type": "bool"
        }
      ],
      "stateMutability": "view",
      "type": "function"
    },
    {
      "inputs": [
        {
          "internalType": "uint256",
          "name": "",
          "type": "uint256"
        }
      ],
      "name": "uri",
      "outputs": [
        {
          "internalType": "string",
          "name": "",
          "type": "string"
        }
      ],
      "stateMutability": "view",
      "type": "function"
    }
  ],
  "bytecode": "0x60806040523480156200001157600080fd5b5060405180606001604052806027815260200162001b146027913962000037816200008f565b5062000064336000670de0b6b3a764000060405180602001604052806000815250620000a860201b60201c565b62000089336002600160405180602001604052806000815250620000a860201b60201c565b620006dc565b8051620000a490600290602084019062000416565b5050565b6001600160a01b0384166200010e5760405162461bcd60e51b815260206004820152602160248201527f455243313135353a206d696e7420746f20746865207a65726f206164647265736044820152607360f81b60648201526084015b60405180910390fd5b3362000134816000876200012288620001c8565b6200012d88620001c8565b5050505050565b6000848152602081815260408083206001600160a01b0389168452909152812080548592906200016690849062000597565b909155505060408051858152602081018590526001600160a01b0380881692600092918516917fc3d58168c5ae7397731d063d5bbf3d657854427343f4c083240f7aacaa2d0f62910160405180910390a46200012d816000878787876200022a565b604080516001808252818301909252606091600091906020808301908036833701905050905082816000815181106200021157634e487b7160e01b600052603260045260246000fd5b602090810291909101015292915050565b505050505050565b62000249846001600160a01b03166200041060201b620005ad1760201c565b15620002225760405163f23a6e6160e01b81526001600160a01b0385169063f23a6e61906200028590899089908890889088906004016200053b565b602060405180830381600087803b158015620002a057600080fd5b505af1925050508015620002d3575060408051601f3d908101601f19168201909252620002d091810190620004bc565b60015b6200039457620002e262000634565b806308c379a01415620003235750620002fa6200064d565b8062000307575062000325565b8060405162461bcd60e51b815260040162000105919062000582565b505b60405162461bcd60e51b815260206004820152603460248201527f455243313135353a207472616e7366657220746f206e6f6e204552433131353560448201527f526563656976657220696d706c656d656e746572000000000000000000000000606482015260840162000105565b6001600160e01b0319811663f23a6e6160e01b14620004075760405162461bcd60e51b815260206004820152602860248201527f455243313135353a204552433131353552656365697665722072656a656374656044820152676420746f6b656e7360c01b606482015260840162000105565b50505050505050565b3b151590565b8280546200042490620005bc565b90600052602060002090601f01602090048101928262000448576000855562000493565b82601f106200046357805160ff191683800117855562000493565b8280016001018555821562000493579182015b828111156200049357825182559160200191906001019062000476565b50620004a1929150620004a5565b5090565b5b80821115620004a15760008155600101620004a6565b600060208284031215620004ce578081fd5b81516001600160e01b031981168114620004e6578182fd5b9392505050565b60008151808452815b818110156200051457602081850181015186830182015201620004f6565b81811115620005265782602083870101525b50601f01601f19169290920160200192915050565b6001600160a01b03868116825285166020820152604081018490526060810183905260a0608082018190526000906200057790830184620004ed565b979650505050505050565b602081526000620004e66020830184620004ed565b60008219821115620005b757634e487b7160e01b81526011600452602481fd5b500190565b600181811c90821680620005d157607f821691505b60208210811415620005f357634e487b7160e01b600052602260045260246000fd5b50919050565b601f8201601f191681016001600160401b03811182821017156200062d57634e487b7160e01b600052604160045260246000fd5b6040525050565b600060033d11156200064a57600481823e5160e01c5b90565b600060443d10156200065c5790565b6040516003193d81016004833e81513d6001600160401b0380831160248401831017156200068c57505050505090565b8285019150815181811115620006a55750505050505090565b843d8701016020828501011115620006c05750505050505090565b620006d160208286010187620005f9565b509095945050505050565b61142880620006ec6000396000f3fe608060405234801561001057600080fd5b506004361061008d5760003560e01c8062fdd58e1461009257806301ffc9a7146100b85780630e89341c146100db5780632eb2c2d6146100fb5780633e4bee38146101105780634e1273f414610118578063a22cb46514610138578063d562e2041461014b578063e985e9c514610153578063f242432a1461018f575b600080fd5b6100a56100a0366004610eb2565b6101a2565b6040519081526020015b60405180910390f35b6100cb6100c6366004610fa5565b610239565b60405190151581526020016100af565b6100ee6100e9366004610fe4565b61028b565b6040516100af9190611165565b61010e610109366004610d71565b61031f565b005b6100a5600081565b61012b610126366004610edb565b6103b6565b6040516100af9190611124565b61010e610146366004610e78565b610517565b6100a5600281565b6100cb610161366004610d3f565b6001600160a01b03918216600090815260016020908152604080832093909416825291909152205460ff1690565b61010e61019d366004610e16565b610526565b60006001600160a01b0383166102135760405162461bcd60e51b815260206004820152602b60248201527f455243313135353a2062616c616e636520717565727920666f7220746865207a60448201526a65726f206164647265737360a81b60648201526084015b60405180910390fd5b506000908152602081815260408083206001600160a01b03949094168352929052205490565b60006001600160e01b03198216636cdb3d1360e11b148061026a57506001600160e01b031982166303a24d0760e21b145b8061028557506301ffc9a760e01b6001600160e01b03198316145b92915050565b60606002805461029a9061128a565b80601f01602080910402602001604051908101604052809291908181526020018280546102c69061128a565b80156103135780601f106102e857610100808354040283529160200191610313565b820191906000526020600020905b8154815290600101906020018083116102f657829003601f168201915b50505050509050919050565b6001600160a01b03851633148061033b575061033b8533610161565b6103a25760405162461bcd60e51b815260206004820152603260248201527f455243313135353a207472616e736665722063616c6c6572206973206e6f74206044820152711bdddb995c881b9bdc88185c1c1c9bdd995960721b606482015260840161020a565b6103af85858585856105b3565b5050505050565b6060815183511461041b5760405162461bcd60e51b815260206004820152602960248201527f455243313135353a206163636f756e747320616e6420696473206c656e677468604482015268040dad2e6dac2e8c6d60bb1b606482015260840161020a565b600083516001600160401b0381111561044457634e487b7160e01b600052604160045260246000fd5b60405190808252806020026020018201604052801561046d578160200160208202803683370190505b50905060005b845181101561050f576104d485828151811061049f57634e487b7160e01b600052603260045260246000fd5b60200260200101518583815181106104c757634e487b7160e01b600052603260045260246000fd5b60200260200101516101a2565b8282815181106104f457634e487b7160e01b600052603260045260246000fd5b6020908102919091010152610508816112f1565b9050610473565b509392505050565b6105223383836107ac565b5050565b6001600160a01b03851633148061054257506105428533610161565b6105a05760405162461bcd60e51b815260206004820152602960248201527f455243313135353a2063616c6c6572206973206e6f74206f776e6572206e6f7260448201526808185c1c1c9bdd995960ba1b606482015260840161020a565b6103af858585858561088d565b3b151590565b81518351146106155760405162461bcd60e51b815260206004820152602860248201527f455243313135353a2069647320616e6420616d6f756e7473206c656e677468206044820152670dad2e6dac2e8c6d60c31b606482015260840161020a565b6001600160a01b03841661063b5760405162461bcd60e51b815260040161020a906111c0565b3360005b845181101561073e57600085828151811061066a57634e487b7160e01b600052603260045260246000fd5b60200260200101519050600085838151811061069657634e487b7160e01b600052603260045260246000fd5b602090810291909101810151600084815280835260408082206001600160a01b038e1683529093529190912054909150818110156106e65760405162461bcd60e51b815260040161020a90611205565b6000838152602081815260408083206001600160a01b038e8116855292528083208585039055908b16825281208054849290610723908490611272565b9250508190555050505080610737906112f1565b905061063f565b50846001600160a01b0316866001600160a01b0316826001600160a01b03167f4a39dc06d4c0dbc64b70af90fd698a233a518aa5d07e595d983b8c0526c8f7fb878760405161078e929190611137565b60405180910390a46107a48187878787876109b3565b505050505050565b816001600160a01b0316836001600160a01b031614156108205760405162461bcd60e51b815260206004820152602960248201527f455243313135353a2073657474696e6720617070726f76616c20737461747573604482015268103337b91039b2b63360b91b606482015260840161020a565b6001600160a01b03838116600081815260016020908152604080832094871680845294825291829020805460ff191686151590811790915591519182527f17307eab39ab6107e8899845ad3d59bd9653f200f220920489ca2b5937696c31910160405180910390a3505050565b6001600160a01b0384166108b35760405162461bcd60e51b815260040161020a906111c0565b336108cc8187876108c388610b1e565b6103af88610b1e565b6000848152602081815260408083206001600160a01b038a1684529091529020548381101561090d5760405162461bcd60e51b815260040161020a90611205565b6000858152602081815260408083206001600160a01b038b811685529252808320878503905590881682528120805486929061094a908490611272565b909155505060408051868152602081018690526001600160a01b03808916928a821692918616917fc3d58168c5ae7397731d063d5bbf3d657854427343f4c083240f7aacaa2d0f62910160405180910390a46109aa828888888888610b77565b50505050505050565b6001600160a01b0384163b156107a45760405163bc197c8160e01b81526001600160a01b0385169063bc197c81906109f79089908990889088908890600401611081565b602060405180830381600087803b158015610a1157600080fd5b505af1925050508015610a41575060408051601f3d908101601f19168201909252610a3e91810190610fc8565b60015b610aee57610a4d611338565b806308c379a01415610a875750610a62611350565b80610a6d5750610a89565b8060405162461bcd60e51b815260040161020a9190611165565b505b60405162461bcd60e51b815260206004820152603460248201527f455243313135353a207472616e7366657220746f206e6f6e20455243313135356044820152732932b1b2b4bb32b91034b6b83632b6b2b73a32b960611b606482015260840161020a565b6001600160e01b0319811663bc197c8160e01b146109aa5760405162461bcd60e51b815260040161020a90611178565b60408051600180825281830190925260609160009190602080830190803683370190505090508281600081518110610b6657634e487b7160e01b600052603260045260246000fd5b602090810291909101015292915050565b6001600160a01b0384163b156107a45760405163f23a6e6160e01b81526001600160a01b0385169063f23a6e6190610bbb90899089908890889088906004016110df565b602060405180830381600087803b158015610bd557600080fd5b505af1925050508015610c05575060408051601f3d908101601f19168201909252610c0291810190610fc8565b60015b610c1157610a4d611338565b6001600160e01b0319811663f23a6e6160e01b146109aa5760405162461bcd60e51b815260040161020a90611178565b80356001600160a01b0381168114610c5857600080fd5b919050565b600082601f830112610c6d578081fd5b81356020610c7a8261124f565b604051610c8782826112c5565b8381528281019150858301600585901b87018401881015610ca6578586fd5b855b85811015610cc457813584529284019290840190600101610ca8565b5090979650505050505050565b600082601f830112610ce1578081fd5b81356001600160401b03811115610cfa57610cfa611322565b604051610d11601f8301601f1916602001826112c5565b818152846020838601011115610d25578283fd5b816020850160208301379081016020019190915292915050565b60008060408385031215610d51578182fd5b610d5a83610c41565b9150610d6860208401610c41565b90509250929050565b600080600080600060a08688031215610d88578081fd5b610d9186610c41565b9450610d9f60208701610c41565b935060408601356001600160401b0380821115610dba578283fd5b610dc689838a01610c5d565b94506060880135915080821115610ddb578283fd5b610de789838a01610c5d565b93506080880135915080821115610dfc578283fd5b50610e0988828901610cd1565b9150509295509295909350565b600080600080600060a08688031215610e2d578081fd5b610e3686610c41565b9450610e4460208701610c41565b9350604086013592506060860135915060808601356001600160401b03811115610e6c578182fd5b610e0988828901610cd1565b60008060408385031215610e8a578182fd5b610e9383610c41565b915060208301358015158114610ea7578182fd5b809150509250929050565b60008060408385031215610ec4578182fd5b610ecd83610c41565b946020939093013593505050565b60008060408385031215610eed578182fd5b82356001600160401b0380821115610f03578384fd5b818501915085601f830112610f16578384fd5b81356020610f238261124f565b604051610f3082826112c5565b8381528281019150858301600585901b870184018b1015610f4f578889fd5b8896505b84871015610f7857610f6481610c41565b835260019690960195918301918301610f53565b5096505086013592505080821115610f8e578283fd5b50610f9b85828601610c5d565b9150509250929050565b600060208284031215610fb6578081fd5b8135610fc1816113d9565b9392505050565b600060208284031215610fd9578081fd5b8151610fc1816113d9565b600060208284031215610ff5578081fd5b5035919050565b6000815180845260208085019450808401835b8381101561102b5781518752958201959082019060010161100f565b509495945050505050565b60008151808452815b8181101561105b5760208185018101518683018201520161103f565b8181111561106c5782602083870101525b50601f01601f19169290920160200192915050565b6001600160a01b0386811682528516602082015260a0604082018190526000906110ad90830186610ffc565b82810360608401526110bf8186610ffc565b905082810360808401526110d38185611036565b98975050505050505050565b6001600160a01b03868116825285166020820152604081018490526060810183905260a06080820181905260009061111990830184611036565b979650505050505050565b602081526000610fc16020830184610ffc565b60408152600061114a6040830185610ffc565b828103602084015261115c8185610ffc565b95945050505050565b602081526000610fc16020830184611036565b60208082526028908201527f455243313135353a204552433131353552656365697665722072656a656374656040820152676420746f6b656e7360c01b606082015260800190565b60208082526025908201527f455243313135353a207472616e7366657220746f20746865207a65726f206164604082015264647265737360d81b606082015260800190565b6020808252602a908201527f455243313135353a20696e73756666696369656e742062616c616e636520666f60408201526939103a3930b739b332b960b11b606082015260800190565b60006001600160401b0382111561126857611268611322565b5060051b60200190565b600082198211156112855761128561130c565b500190565b600181811c9082168061129e57607f821691505b602082108114156112bf57634e487b7160e01b600052602260045260246000fd5b50919050565b601f8201601f191681016001600160401b03811182821017156112ea576112ea611322565b6040525050565b60006000198214156113055761130561130c565b5060010190565b634e487b7160e01b600052601160045260246000fd5b634e487b7160e01b600052604160045260246000fd5b600060033d111561134d57600481823e5160e01c5b90565b600060443d101561135e5790565b6040516003193d81016004833e81513d6001600160401b03808311602484018310171561138d57505050505090565b82850191508151818111156113a55750505050505090565b843d87010160208285010111156113bf5750505050505090565b6113ce602082860101876112c5565b509095945050505050565b6001600160e01b0319811681146113ef57600080fd5b5056fea2646970667358221220152b8c2eaffe7769785bb9570a8867b796073c5a1310b0eaa236632df8a2a97064736f6c6343000804003368747470733a2f2f67616d652e6578616d706c652f6170692f6974656d2f7b69647d2e6a736f6e",
  "linkReferences": {},
  "deployedLinkReferences": {}
}