{
  "_format": "hh-sol-artifact-1",
  "contractName": "Token",
  "sourceName": "contracts/Token.sol",
  "abi": [
    {
      "anonymous": false,
      "inputs": [
        {
          "indexed": false,
          "internalType": "address",
          "name": "previousAdmin",
          "type": "address"
        },
        {
          "indexed": false,
          "internalType": "address",
          "name": "newAdmin",
          "type": "address"
        }
      ],
      "name": "AdminChanged",
      "type": "event"
    },
    {
      "anonymous": false,
      "inputs": [
        {
          "indexed": true,
          "internalType": "address",
          "name": "owner",
          "type": "address"
        },
        {
          "indexed": true,
          "internalType": "address",
          "name": "spender",
          "type": "address"
        },
        {
          "indexed": false,
          "internalType": "uint256",
          "name": "value",
          "type": "uint256"
        }
      ],
      "name": "Approval",
      "type": "event"
    },
    {
      "anonymous": false,
      "inputs": [
        {
          "indexed": true,
          "internalType": "address",
          "name": "beacon",
          "type": "address"
        }
      ],
      "name": "BeaconUpgraded",
      "type": "event"
    },
    {
      "anonymous": false,
      "inputs": [
        {
          "indexed": true,
          "internalType": "address",
          "name": "previousOwner",
          "type": "address"
        },
        {
          "indexed": true,
          "internalType": "address",
          "name": "newOwner",
          "type": "address"
        }
      ],
      "name": "OwnershipTransferred",
      "type": "event"
    },
    {
      "anonymous": false,
      "inputs": [
        {
          "indexed": true,
          "internalType": "address",
          "name": "from",
          "type": "address"
        },
        {
          "indexed": true,
          "internalType": "address",
          "name": "to",
          "type": "address"
        },
        {
          "indexed": false,
          "internalType": "uint256",
          "name": "value",
          "type": "uint256"
        }
      ],
      "name": "Transfer",
      "type": "event"
    },
    {
      "anonymous": false,
      "inputs": [
        {
          "indexed": true,
          "internalType": "address",
          "name": "implementation",
          "type": "address"
        }
      ],
      "name": "Upgraded",
      "type": "event"
    },
    {
      "inputs": [
        {
          "internalType": "address",
          "name": "owner",
          "type": "address"
        },
        {
          "internalType": "address",
          "name": "spender",
          "type": "address"
        }
      ],
      "name": "allowance",
      "outputs": [
        {
          "internalType": "uint256",
          "name": "",
          "type": "uint256"
        }
      ],
      "stateMutability": "view",
      "type": "function"
    },
    {
      "inputs": [
        {
          "internalType": "address",
          "name": "spender",
          "type": "address"
        },
        {
          "internalType": "uint256",
          "name": "amount",
          "type": "uint256"
        }
      ],
      "name": "approve",
      "outputs": [
        {
          "internalType": "bool",
          "name": "",
          "type": "bool"
        }
      ],
      "stateMutability": "nonpayable",
      "type": "function"
    },
    {
      "inputs": [
        {
          "internalType": "address",
          "name": "account",
          "type": "address"
        }
      ],
      "name": "balanceOf",
      "outputs": [
        {
          "internalType": "uint256",
          "name": "",
          "type": "uint256"
        }
      ],
      "stateMutability": "view",
      "type": "function"
    },
    {
      "inputs": [],
      "name": "decimals",
      "outputs": [
        {
          "internalType": "uint8",
          "name": "",
          "type": "uint8"
        }
      ],
      "stateMutability": "view",
      "type": "function"
    },
    {
      "inputs": [
        {
          "internalType": "address",
          "name": "spender",
          "type": "address"
        },
        {
          "internalType": "uint256",
          "name": "subtractedValue",
          "type": "uint256"
        }
      ],
      "name": "decreaseAllowance",
      "outputs": [
        {
          "internalType": "bool",
          "name": "",
          "type": "bool"
        }
      ],
      "stateMutability": "nonpayable",
      "type": "function"
    },
    {
      "inputs": [
        {
          "internalType": "address",
          "name": "spender",
          "type": "address"
        },
        {
          "internalType": "uint256",
          "name": "addedValue",
          "type": "uint256"
        }
      ],
      "name": "increaseAllowance",
      "outputs": [
        {
          "internalType": "bool",
          "name": "",
          "type": "bool"
        }
      ],
      "stateMutability": "nonpayable",
      "type": "function"
    },
    {
      "inputs": [
        {
          "internalType": "string",
          "name": "_name",
          "type": "string"
        },
        {
          "internalType": "string",
          "name": "_ticker",
          "type": "string"
        },
        {
          "internalType": "uint256",
          "name": "_amount",
          "type": "uint256"
        },
        {
          "internalType": "address",
          "name": "_to",
          "type": "address"
        }
      ],
      "name": "initialize",
      "outputs": [],
      "stateMutability": "nonpayable",
      "type": "function"
    },
    {
      "inputs": [
        {
          "internalType": "address",
          "name": "_to",
          "type": "address"
        },
        {
          "internalType": "uint256",
          "name": "_amount",
          "type": "uint256"
        }
      ],
      "name": "mint",
      "outputs": [],
      "stateMutability": "nonpayable",
      "type": "function"
    },
    {
      "inputs": [],
      "name": "name",
      "outputs": [
        {
          "internalType": "string",
          "name": "",
          "type": "string"
        }
      ],
      "stateMutability": "view",
      "type": "function"
    },
    {
      "inputs": [],
      "name": "owner",
      "outputs": [
        {
          "internalType": "address",
          "name": "",
          "type": "address"
        }
      ],
      "stateMutability": "view",
      "type": "function"
    },
    {
      "inputs": [],
      "name": "renounceOwnership",
      "outputs": [],
      "stateMutability": "nonpayable",
      "type": "function"
    },
    {
      "inputs": [],
      "name": "symbol",
      "outputs": [
        {
          "internalType": "string",
          "name": "",
          "type": "string"
        }
      ],
      "stateMutability": "view",
      "type": "function"
    },
    {
      "inputs": [],
      "name": "totalSupply",
      "outputs": [
        {
          "internalType": "uint256",
          "name": "",
          "type": "uint256"
        }
      ],
      "stateMutability": "view",
      "type": "function"
    },
    {
      "inputs": [
        {
          "internalType": "address",
          "name": "recipient",
          "type": "address"
        },
        {
          "internalType": "uint256",
          "name": "amount",
          "type": "uint256"
        }
      ],
      "name": "transfer",
      "outputs": [
        {
          "internalType": "bool",
          "name": "",
          "type": "bool"
        }
      ],
      "stateMutability": "nonpayable",
      "type": "function"
    },
    {
      "inputs": [
        {
          "internalType": "address",
          "name": "sender",
          "type": "address"
        },
        {
          "internalType": "address",
          "name": "recipient",
          "type": "address"
        },
        {
          "internalType": "uint256",
          "name": "amount",
          "type": "uint256"
        }
      ],
      "name": "transferFrom",
      "outputs": [
        {
          "internalType": "bool",
          "name": "",
          "type": "bool"
        }
      ],
      "stateMutability": "nonpayable",
      "type": "function"
    },
    {
      "inputs": [
        {
          "internalType": "address",
          "name": "newOwner",
          "type": "address"
        }
      ],
      "name": "transferOwnership",
      "outputs": [],
      "stateMutability": "nonpayable",
      "type": "function"
    },
    {
      "inputs": [
        {
          "internalType": "address",
          "name": "newImplementation",
          "type": "address"
        }
      ],
      "name": "upgradeTo",
      "outputs": [],
      "stateMutability": "nonpayable",
      "type": "function"
    },
    {
      "inputs": [
        {
          "internalType": "address",
          "name": "newImplementation",
          "type": "address"
        },
        {
          "internalType": "bytes",
          "name": "data",
          "type": "bytes"
        }
      ],
      "name": "upgradeToAndCall",
      "outputs": [],
      "stateMutability": "payable",
      "type": "function"
    }
  ],
  "bytecode": "0x60a06040523060601b60805234801561001757600080fd5b5060805160601c6118f661004b600039600081816104b6015281816104f6015281816105f8015261063801526118f66000f3fe6080604052600436106100d95760003560e01c806306fdde03146100de578063095ea7b31461010957806318160ddd1461013957806323b872dd14610158578063313ce567146101785780633659cfe61461019457806339509351146101b657806340c10f19146101d65780634f1ef286146101f657806370a0823114610209578063715018a61461023f5780638da5cb5b1461025457806395d89b4114610276578063a457c2d71461028b578063a9059cbb146102ab578063bd3a13f6146102cb578063dd62ed3e146102eb578063f2fde38b14610331575b600080fd5b3480156100ea57600080fd5b506100f3610351565b6040516101009190611557565b60405180910390f35b34801561011557600080fd5b50610129610124366004611484565b6103e3565b6040519015158152602001610100565b34801561014557600080fd5b506035545b604051908152602001610100565b34801561016457600080fd5b506101296101733660046113eb565b6103fa565b34801561018457600080fd5b5060405160128152602001610100565b3480156101a057600080fd5b506101b46101af36600461139f565b6104ab565b005b3480156101c257600080fd5b506101296101d1366004611484565b610574565b3480156101e257600080fd5b506101b46101f1366004611484565b6105b0565b6101b4610204366004611426565b6105ed565b34801561021557600080fd5b5061014a61022436600461139f565b6001600160a01b031660009081526033602052604090205490565b34801561024b57600080fd5b506101b46106a3565b34801561026057600080fd5b506102696106de565b6040516101009190611543565b34801561028257600080fd5b506100f36106ed565b34801561029757600080fd5b506101296102a6366004611484565b6106fc565b3480156102b757600080fd5b506101296102c6366004611484565b610795565b3480156102d757600080fd5b506101b46102e63660046114ad565b6107a2565b3480156102f757600080fd5b5061014a6103063660046113b9565b6001600160a01b03918216600090815260346020908152604080832093909416825291909152205490565b34801561033d57600080fd5b506101b461034c36600461139f565b610843565b606060368054610360906117d2565b80601f016020809104026020016040519081016040528092919081815260200182805461038c906117d2565b80156103d95780601f106103ae576101008083540402835291602001916103d9565b820191906000526020600020905b8154815290600101906020018083116103bc57829003601f168201915b5050505050905090565b60006103f03384846108e0565b5060015b92915050565b6000610407848484610a04565b6001600160a01b0384166000908152603460209081526040808320338452909152902054828110156104915760405162461bcd60e51b815260206004820152602860248201527f45524332303a207472616e7366657220616d6f756e74206578636565647320616044820152676c6c6f77616e636560c01b60648201526084015b60405180910390fd5b61049e85338584036108e0565b60019150505b9392505050565b306001600160a01b037f00000000000000000000000000000000000000000000000000000000000000001614156104f45760405162461bcd60e51b81526004016104889061158a565b7f00000000000000000000000000000000000000000000000000000000000000006001600160a01b0316610526610bc2565b6001600160a01b03161461054c5760405162461bcd60e51b8152600401610488906115c4565b61055581610bde565b6040805160008082526020820190925261057191839190610c0d565b50565b3360008181526034602090815260408083206001600160a01b038716845290915281205490916103f09185906105ab908690611681565b6108e0565b336105b96106de565b6001600160a01b0316146105df5760405162461bcd60e51b81526004016104889061164c565b6105e98282610d4d565b5050565b306001600160a01b037f00000000000000000000000000000000000000000000000000000000000000001614156106365760405162461bcd60e51b81526004016104889061158a565b7f00000000000000000000000000000000000000000000000000000000000000006001600160a01b0316610668610bc2565b6001600160a01b03161461068e5760405162461bcd60e51b8152600401610488906115c4565b61069782610bde565b6105e982826001610c0d565b336106ac6106de565b6001600160a01b0316146106d25760405162461bcd60e51b81526004016104889061164c565b6106dc6000610e1a565b565b6065546001600160a01b031690565b606060378054610360906117d2565b3360009081526034602090815260408083206001600160a01b03861684529091528120548281101561077e5760405162461bcd60e51b815260206004820152602560248201527f45524332303a2064656372656173656420616c6c6f77616e63652062656c6f77604482015264207a65726f60d81b6064820152608401610488565b61078b33858584036108e0565b5060019392505050565b60006103f0338484610a04565b600054610100900460ff16806107bb575060005460ff16155b6107d75760405162461bcd60e51b8152600401610488906115fe565b600054610100900460ff161580156107f9576000805461ffff19166101011790555b6108038585610e6c565b61080b610eec565b61082a8261081b6012600a6116dc565b6108259086611787565b610d4d565b801561083c576000805461ff00191690555b5050505050565b3361084c6106de565b6001600160a01b0316146108725760405162461bcd60e51b81526004016104889061164c565b6001600160a01b0381166108d75760405162461bcd60e51b815260206004820152602660248201527f4f776e61626c653a206e6577206f776e657220697320746865207a65726f206160448201526564647265737360d01b6064820152608401610488565b61057181610e1a565b6001600160a01b0383166109425760405162461bcd60e51b8152602060048201526024808201527f45524332303a20617070726f76652066726f6d20746865207a65726f206164646044820152637265737360e01b6064820152608401610488565b6001600160a01b0382166109a35760405162461bcd60e51b815260206004820152602260248201527f45524332303a20617070726f766520746f20746865207a65726f206164647265604482015261737360f01b6064820152608401610488565b6001600160a01b0383811660008181526034602090815260408083209487168084529482529182902085905590518481527f8c5be1e5ebec7d5bd14f71427d1e84f3dd0314c0f7b2291e5b200ac8c7c3b925910160405180910390a3505050565b6001600160a01b038316610a685760405162461bcd60e51b815260206004820152602560248201527f45524332303a207472616e736665722066726f6d20746865207a65726f206164604482015264647265737360d81b6064820152608401610488565b6001600160a01b038216610aca5760405162461bcd60e51b815260206004820152602360248201527f45524332303a207472616e7366657220746f20746865207a65726f206164647260448201526265737360e81b6064820152608401610488565b6001600160a01b03831660009081526033602052604090205481811015610b425760405162461bcd60e51b815260206004820152602660248201527f45524332303a207472616e7366657220616d6f756e7420657863656564732062604482015265616c616e636560d01b6064820152608401610488565b6001600160a01b03808516600090815260336020526040808220858503905591851681529081208054849290610b79908490611681565b92505081905550826001600160a01b0316846001600160a01b03166000805160206118a183398151915284604051610bb391815260200190565b60405180910390a35b50505050565b60008051602061185a833981519152546001600160a01b031690565b33610be76106de565b6001600160a01b0316146105715760405162461bcd60e51b81526004016104889061164c565b6000610c17610bc2565b9050610c2284610f60565b600083511180610c2f5750815b15610c4057610c3e8484610ff3565b505b7f4910fdfa16fed3260ed0e7147f7cc6da11a60208b5b9406d12a635614ffd9143805460ff1661083c57805460ff19166001178155604051610cbb908690610c8c908590602401611543565b60408051601f198184030181529190526020810180516001600160e01b0316631b2ce7f360e11b179052610ff3565b50805460ff19168155610ccc610bc2565b6001600160a01b0316826001600160a01b031614610d445760405162461bcd60e51b815260206004820152602f60248201527f45524331393637557067726164653a207570677261646520627265616b73206660448201526e75727468657220757067726164657360881b6064820152608401610488565b61083c856110de565b6001600160a01b038216610da35760405162461bcd60e51b815260206004820152601f60248201527f45524332303a206d696e7420746f20746865207a65726f2061646472657373006044820152606401610488565b8060356000828254610db59190611681565b90915550506001600160a01b03821660009081526033602052604081208054839290610de2908490611681565b90915550506040518181526001600160a01b038316906000906000805160206118a18339815191529060200160405180910390a35050565b606580546001600160a01b038381166001600160a01b0319831681179093556040519116919082907f8be0079c531659141344cd1fd0a4f28419497f9722a3daafe3b4186f6b6457e090600090a35050565b600054610100900460ff1680610e85575060005460ff16155b610ea15760405162461bcd60e51b8152600401610488906115fe565b600054610100900460ff16158015610ec3576000805461ffff19166101011790555b610ecb61111e565b610ed58383611188565b8015610ee7576000805461ff00191690555b505050565b600054610100900460ff1680610f05575060005460ff16155b610f215760405162461bcd60e51b8152600401610488906115fe565b600054610100900460ff16158015610f43576000805461ffff19166101011790555b610f4c33610e1a565b8015610571576000805461ff001916905550565b803b610fc45760405162461bcd60e51b815260206004820152602d60248201527f455243313936373a206e657720696d706c656d656e746174696f6e206973206e60448201526c1bdd08184818dbdb9d1c9858dd609a1b6064820152608401610488565b60008051602061185a83398151915280546001600160a01b0319166001600160a01b0392909216919091179055565b6060823b6110525760405162461bcd60e51b815260206004820152602660248201527f416464726573733a2064656c65676174652063616c6c20746f206e6f6e2d636f6044820152651b9d1c9858dd60d21b6064820152608401610488565b600080846001600160a01b03168460405161106d9190611527565b600060405180830381855af49150503d80600081146110a8576040519150601f19603f3d011682016040523d82523d6000602084013e6110ad565b606091505b50915091506110d5828260405180606001604052806027815260200161187a6027913961121d565b95945050505050565b6110e781610f60565b6040516001600160a01b038216907fbc7cd75a20ee27fd9adebab32041f755214dbc6bffa90cc0225b39da2e5c2d3b90600090a250565b600054610100900460ff1680611137575060005460ff16155b6111535760405162461bcd60e51b8152600401610488906115fe565b600054610100900460ff16158015610f4c576000805461ffff19166101011790558015610571576000805461ff001916905550565b600054610100900460ff16806111a1575060005460ff16155b6111bd5760405162461bcd60e51b8152600401610488906115fe565b600054610100900460ff161580156111df576000805461ffff19166101011790555b82516111f2906036906020860190611256565b508151611206906037906020850190611256565b508015610ee7576000805461ff0019169055505050565b6060831561122c5750816104a4565b82511561123c5782518084602001fd5b8160405162461bcd60e51b81526004016104889190611557565b828054611262906117d2565b90600052602060002090601f01602090048101928261128457600085556112ca565b82601f1061129d57805160ff19168380011785556112ca565b828001600101855582156112ca579182015b828111156112ca5782518255916020019190600101906112af565b506112d69291506112da565b5090565b5b808211156112d657600081556001016112db565b60006001600160401b038084111561130957611309611823565b604051601f8501601f19908116603f0116810190828211818310171561133157611331611823565b8160405280935085815286868601111561134a57600080fd5b858560208301376000602087830101525050509392505050565b80356001600160a01b038116811461137b57600080fd5b919050565b600082601f830112611390578081fd5b6104a4838335602085016112ef565b6000602082840312156113b0578081fd5b6104a482611364565b600080604083850312156113cb578081fd5b6113d483611364565b91506113e260208401611364565b90509250929050565b6000806000606084860312156113ff578081fd5b61140884611364565b925061141660208501611364565b9150604084013590509250925092565b60008060408385031215611438578182fd5b61144183611364565b915060208301356001600160401b0381111561145b578182fd5b8301601f8101851361146b578182fd5b61147a858235602084016112ef565b9150509250929050565b60008060408385031215611496578182fd5b61149f83611364565b946020939093013593505050565b600080600080608085870312156114c2578081fd5b84356001600160401b03808211156114d8578283fd5b6114e488838901611380565b955060208701359150808211156114f9578283fd5b5061150687828801611380565b9350506040850135915061151c60608601611364565b905092959194509250565b600082516115398184602087016117a6565b9190910192915050565b6001600160a01b0391909116815260200190565b60208152600082518060208401526115768160408501602087016117a6565b601f01601f19169190910160400192915050565b6020808252602c9082015260008051602061183a83398151915260408201526b19195b1959d85d1958d85b1b60a21b606082015260800190565b6020808252602c9082015260008051602061183a83398151915260408201526b6163746976652070726f787960a01b606082015260800190565b6020808252602e908201527f496e697469616c697a61626c653a20636f6e747261637420697320616c72656160408201526d191e481a5b9a5d1a585b1a5e995960921b606082015260800190565b6020808252818101527f4f776e61626c653a2063616c6c6572206973206e6f7420746865206f776e6572604082015260600190565b600082198211156116945761169461180d565b500190565b600181815b808511156116d45781600019048211156116ba576116ba61180d565b808516156116c757918102915b93841c939080029061169e565b509250929050565b60006104a460ff8416836000826116f5575060016103f4565b81611702575060006103f4565b816001811461171857600281146117225761173e565b60019150506103f4565b60ff8411156117335761173361180d565b50506001821b6103f4565b5060208310610133831016604e8410600b8410161715611761575081810a6103f4565b61176b8383611699565b806000190482111561177f5761177f61180d565b029392505050565b60008160001904831182151516156117a1576117a161180d565b500290565b60005b838110156117c15781810151838201526020016117a9565b83811115610bbc5750506000910152565b600181811c908216806117e657607f821691505b6020821081141561180757634e487b7160e01b600052602260045260246000fd5b50919050565b634e487b7160e01b600052601160045260246000fd5b634e487b7160e01b600052604160045260246000fdfe46756e6374696f6e206d7573742062652063616c6c6564207468726f75676820360894a13ba1a3210667c828492db98dca3e2076cc3735a920a3ca505d382bbc416464726573733a206c6f772d6c6576656c2064656c65676174652063616c6c206661696c6564ddf252ad1be2c89b69c2b068fc378daa952ba7f163c4a11628f55a4df523b3efa26469706673582212202fc275b7baf53a5ddf3a4d13b727fe8e1b6366b4836eb4bc73d6359d89e985f464736f6c63430008040033",
  "linkReferences": {},
  "deployedLinkReferences": {}
}