{
  "_format": "hh-sol-artifact-1",
  "contractName": "Mock721",
  "sourceName": "contracts/Mock721.sol",
  "abi": [
    {
      "inputs": [],
      "stateMutability": "nonpayable",
      "type": "constructor"
    },
    {
      "anonymous": false,
      "inputs": [
        {
          "indexed": true,
          "internalType": "address",
          "name": "owner",
          "type": "address"
        },
        {
          "indexed": true,
          "internalType": "address",
          "name": "approved",
          "type": "address"
        },
        {
          "indexed": true,
          "internalType": "uint256",
          "name": "tokenId",
          "type": "uint256"
        }
      ],
      "name": "Approval",
      "type": "event"
    },
    {
      "anonymous": false,
      "inputs": [
        {
          "indexed": true,
          "internalType": "address",
          "name": "owner",
          "type": "address"
        },
        {
          "indexed": true,
          "internalType": "address",
          "name": "operator",
          "type": "address"
        },
        {
          "indexed": false,
          "internalType": "bool",
          "name": "approved",
          "type": "bool"
        }
      ],
      "name": "ApprovalForAll",
      "type": "event"
    },
    {
      "anonymous": false,
      "inputs": [
        {
          "indexed": true,
          "internalType": "address",
          "name": "from",
          "type": "address"
        },
        {
          "indexed": true,
          "internalType": "address",
          "name": "to",
          "type": "address"
        },
        {
          "indexed": true,
          "internalType": "uint256",
          "name": "tokenId",
          "type": "uint256"
        }
      ],
      "name": "Transfer",
      "type": "event"
    },
    {
      "inputs": [
        {
          "internalType": "address",
          "name": "to",
          "type": "address"
        },
        {
          "internalType": "uint256",
          "name": "tokenId",
          "type": "uint256"
        }
      ],
      "name": "approve",
      "outputs": [],
      "stateMutability": "nonpayable",
      "type": "function"
    },
    {
      "inputs": [
        {
          "internalType": "address",
          "name": "player",
          "type": "address"
        },
        {
          "internalType": "string",
          "name": "_tokenURI",
          "type": "string"
        }
      ],
      "name": "awardItem",
      "outputs": [
        {
          "internalType": "uint256",
          "name": "",
          "type": "uint256"
        }
      ],
      "stateMutability": "nonpayable",
      "type": "function"
    },
    {
      "inputs": [
        {
          "internalType": "address",
          "name": "owner",
          "type": "address"
        }
      ],
      "name": "balanceOf",
      "outputs": [
        {
          "internalType": "uint256",
          "name": "",
          "type": "uint256"
        }
      ],
      "stateMutability": "view",
      "type": "function"
    },
    {
      "inputs": [
        {
          "internalType": "uint256",
          "name": "tokenId",
          "type": "uint256"
        }
      ],
      "name": "getApproved",
      "outputs": [
        {
          "internalType": "address",
          "name": "",
          "type": "address"
        }
      ],
      "stateMutability": "view",
      "type": "function"
    },
    {
      "inputs": [
        {
          "internalType": "address",
          "name": "owner",
          "type": "address"
        },
        {
          "internalType": "address",
          "name": "operator",
          "type": "address"
        }
      ],
      "name": "isApprovedForAll",
      "outputs": [
        {
          "internalType": "bool",
          "name": "",
          "type": "bool"
        }
      ],
      "stateMutability": "view",
      "type": "function"
    },
    {
      "inputs": [],
      "name": "name",
      "outputs": [
        {
          "internalType": "string",
          "name": "",
          "type": "string"
        }
      ],
      "stateMutability": "view",
      "type": "function"
    },
    {
      "inputs": [
        {
          "internalType": "uint256",
          "name": "tokenId",
          "type": "uint256"
        }
      ],
      "name": "ownerOf",
      "outputs": [
        {
          "internalType": "address",
          "name": "",
          "type": "address"
        }
      ],
      "stateMutability": "view",
      "type": "function"
    },
    {
      "inputs": [
        {
          "internalType": "address",
          "name": "from",
          "type": "address"
        },
        {
          "internalType": "address",
          "name": "to",
          "type": "address"
        },
        {
          "internalType": "uint256",
          "name": "tokenId",
          "type": "uint256"
        }
      ],
      "name": "safeTransferFrom",
      "outputs": [],
      "stateMutability": "nonpayable",
      "type": "function"
    },
    {
      "inputs": [
        {
          "internalType": "address",
          "name": "from",
          "type": "address"
        },
        {
          "internalType": "address",
          "name": "to",
          "type": "address"
        },
        {
          "internalType": "uint256",
          "name": "tokenId",
          "type": "uint256"
        },
        {
          "internalType": "bytes",
          "name": "_data",
          "type": "bytes"
        }
      ],
      "name": "safeTransferFrom",
      "outputs": [],
      "stateMutability": "nonpayable",
      "type": "function"
    },
    {
      "inputs": [
        {
          "internalType": "address",
          "name": "operator",
          "type": "address"
        },
        {
          "internalType": "bool",
          "name": "approved",
          "type": "bool"
        }
      ],
      "name": "setApprovalForAll",
      "outputs": [],
      "stateMutability": "nonpayable",
      "type": "function"
    },
    {
      "inputs": [
        {
          "internalType": "bytes4",
          "name": "interfaceId",
          "type": "bytes4"
        }
      ],
      "name": "supportsInterface",
      "outputs": [
        {
          "internalType": "bool",
          "name": "",
          "type": "bool"
        }
      ],
      "stateMutability": "view",
      "type": "function"
    },
    {
      "inputs": [],
      "name": "symbol",
      "outputs": [
        {
          "internalType": "string",
          "name": "",
          "type": "string"
        }
      ],
      "stateMutability": "view",
      "type": "function"
    },
    {
      "inputs": [
        {
          "internalType": "uint256",
          "name": "tokenId",
          "type": "uint256"
        }
      ],
      "name": "tokenURI",
      "outputs": [
        {
          "internalType": "string",
          "name": "",
          "type": "string"
        }
      ],
      "stateMutability": "view",
      "type": "function"
    },
    {
      "inputs": [
        {
          "internalType": "address",
          "name": "from",
          "type": "address"
        },
        {
          "internalType": "address",
          "name": "to",
          "type": "address"
        },
        {
          "internalType": "uint256",
          "name": "tokenId",
          "type": "uint256"
        }
      ],
      "name": "transferFrom",
      "outputs": [],
      "stateMutability": "nonpayable",
      "type": "function"
    }
  ],
  "bytecode": "0x60806040523480156200001157600080fd5b506040805180820182526007815266135bd8dad3999d60ca1b6020808301918252835180850190945260048452634d4f434b60e01b9084015281519192916200005d916000916200007c565b508051620000739060019060208401906200007c565b5050506200015f565b8280546200008a9062000122565b90600052602060002090601f016020900481019282620000ae5760008555620000f9565b82601f10620000c957805160ff1916838001178555620000f9565b82800160010185558215620000f9579182015b82811115620000f9578251825591602001919060010190620000dc565b50620001079291506200010b565b5090565b5b808211156200010757600081556001016200010c565b600181811c908216806200013757607f821691505b602082108114156200015957634e487b7160e01b600052602260045260246000fd5b50919050565b61168f806200016f6000396000f3fe608060405234801561001057600080fd5b50600436106100ba5760003560e01c806301ffc9a7146100bf57806306fdde03146100e7578063081812fc146100fc578063095ea7b31461012757806323b872dd1461013c57806342842e0e1461014f5780636352211e1461016257806370a082311461017557806395d89b4114610196578063a22cb4651461019e578063b88d4fde146101b1578063c87b56dd146101c4578063cf378343146101d7578063e985e9c5146101ea575b600080fd5b6100d26100cd366004611367565b6101fd565b60405190151581526020015b60405180910390f35b6100ef61024f565b6040516100de919061144f565b61010f61010a36600461139f565b6102e1565b6040516001600160a01b0390911681526020016100de565b61013a61013536600461133e565b61036e565b005b61013a61014a3660046111f3565b61047f565b61013a61015d3660046111f3565b6104b0565b61010f61017036600461139f565b6104cb565b6101886101833660046111a7565b610542565b6040519081526020016100de565b6100ef6105c9565b61013a6101ac3660046112a6565b6105d8565b61013a6101bf36600461122e565b6105e7565b6100ef6101d236600461139f565b61061f565b6101886101e53660046112e0565b610796565b6100d26101f83660046111c1565b6107ce565b60006001600160e01b031982166380ac58cd60e01b148061022e57506001600160e01b03198216635b5e139f60e01b145b8061024957506301ffc9a760e01b6001600160e01b03198316145b92915050565b60606000805461025e90611574565b80601f016020809104026020016040519081016040528092919081815260200182805461028a90611574565b80156102d75780601f106102ac576101008083540402835291602001916102d7565b820191906000526020600020905b8154815290600101906020018083116102ba57829003601f168201915b5050505050905090565b60006102ec826107fc565b6103525760405162461bcd60e51b815260206004820152602c60248201527f4552433732313a20617070726f76656420717565727920666f72206e6f6e657860448201526b34b9ba32b73a103a37b5b2b760a11b60648201526084015b60405180910390fd5b506000908152600460205260409020546001600160a01b031690565b6000610379826104cb565b9050806001600160a01b0316836001600160a01b031614156103e75760405162461bcd60e51b815260206004820152602160248201527f4552433732313a20617070726f76616c20746f2063757272656e74206f776e656044820152603960f91b6064820152608401610349565b336001600160a01b0382161480610403575061040381336107ce565b6104705760405162461bcd60e51b815260206004820152603860248201527f4552433732313a20617070726f76652063616c6c6572206973206e6f74206f776044820152771b995c881b9bdc88185c1c1c9bdd995908199bdc88185b1b60421b6064820152608401610349565b61047a8383610819565b505050565b6104893382610887565b6104a55760405162461bcd60e51b8152600401610349906114b4565b61047a838383610949565b61047a838383604051806020016040528060008152506105e7565b6000818152600260205260408120546001600160a01b0316806102495760405162461bcd60e51b815260206004820152602960248201527f4552433732313a206f776e657220717565727920666f72206e6f6e657869737460448201526832b73a103a37b5b2b760b91b6064820152608401610349565b60006001600160a01b0382166105ad5760405162461bcd60e51b815260206004820152602a60248201527f4552433732313a2062616c616e636520717565727920666f7220746865207a65604482015269726f206164647265737360b01b6064820152608401610349565b506001600160a01b031660009081526003602052604090205490565b60606001805461025e90611574565b6105e3338383610ad7565b5050565b6105f13383610887565b61060d5760405162461bcd60e51b8152600401610349906114b4565b61061984848484610ba2565b50505050565b606061062a826107fc565b6106905760405162461bcd60e51b815260206004820152603160248201527f45524337323155524953746f726167653a2055524920717565727920666f72206044820152703737b732bc34b9ba32b73a103a37b5b2b760791b6064820152608401610349565b600082815260066020526040812080546106a990611574565b80601f01602080910402602001604051908101604052809291908181526020018280546106d590611574565b80156107225780601f106106f757610100808354040283529160200191610722565b820191906000526020600020905b81548152906001019060200180831161070557829003601f168201915b50505050509050600061074060408051602081019091526000815290565b9050805160001415610753575092915050565b81511561078557808260405160200161076d9291906113e3565b60405160208183030381529060405292505050919050565b61078e84610bd5565b949350505050565b60006107a6600780546001019055565b60006107b160075490565b90506107bd8482610cac565b6107c78184610dcc565b9392505050565b6001600160a01b03918216600090815260056020908152604080832093909416825291909152205460ff1690565b6000908152600260205260409020546001600160a01b0316151590565b600081815260046020526040902080546001600160a01b0319166001600160a01b038416908117909155819061084e826104cb565b6001600160a01b03167f8c5be1e5ebec7d5bd14f71427d1e84f3dd0314c0f7b2291e5b200ac8c7c3b92560405160405180910390a45050565b6000610892826107fc565b6108f35760405162461bcd60e51b815260206004820152602c60248201527f4552433732313a206f70657261746f7220717565727920666f72206e6f6e657860448201526b34b9ba32b73a103a37b5b2b760a11b6064820152608401610349565b60006108fe836104cb565b9050806001600160a01b0316846001600160a01b031614806109395750836001600160a01b031661092e846102e1565b6001600160a01b0316145b8061078e575061078e81856107ce565b826001600160a01b031661095c826104cb565b6001600160a01b0316146109c45760405162461bcd60e51b815260206004820152602960248201527f4552433732313a207472616e73666572206f6620746f6b656e2074686174206960448201526839903737ba1037bbb760b91b6064820152608401610349565b6001600160a01b038216610a265760405162461bcd60e51b8152602060048201526024808201527f4552433732313a207472616e7366657220746f20746865207a65726f206164646044820152637265737360e01b6064820152608401610349565b610a31600082610819565b6001600160a01b0383166000908152600360205260408120805460019290610a5a908490611531565b90915550506001600160a01b0382166000908152600360205260408120805460019290610a88908490611505565b909155505060008181526002602052604080822080546001600160a01b0319166001600160a01b03868116918217909255915184939187169160008051602061163a83398151915291a4505050565b816001600160a01b0316836001600160a01b03161415610b355760405162461bcd60e51b815260206004820152601960248201527822a9219b99189d1030b8383937bb32903a379031b0b63632b960391b6044820152606401610349565b6001600160a01b03838116600081815260056020908152604080832094871680845294825291829020805460ff191686151590811790915591519182527f17307eab39ab6107e8899845ad3d59bd9653f200f220920489ca2b5937696c31910160405180910390a3505050565b610bad848484610949565b610bb984848484610e57565b6106195760405162461bcd60e51b815260040161034990611462565b6060610be0826107fc565b610c445760405162461bcd60e51b815260206004820152602f60248201527f4552433732314d657461646174613a2055524920717565727920666f72206e6f60448201526e3732bc34b9ba32b73a103a37b5b2b760891b6064820152608401610349565b6000610c5b60408051602081019091526000815290565b90506000815111610c7b57604051806020016040528060008152506107c7565b80610c8584610f64565b604051602001610c969291906113e3565b6040516020818303038152906040529392505050565b6001600160a01b038216610d025760405162461bcd60e51b815260206004820181905260248201527f4552433732313a206d696e7420746f20746865207a65726f20616464726573736044820152606401610349565b610d0b816107fc565b15610d575760405162461bcd60e51b815260206004820152601c60248201527b115490cdcc8c4e881d1bdad95b88185b1c9958591e481b5a5b9d195960221b6044820152606401610349565b6001600160a01b0382166000908152600360205260408120805460019290610d80908490611505565b909155505060008181526002602052604080822080546001600160a01b0319166001600160a01b038616908117909155905183929060008051602061163a833981519152908290a45050565b610dd5826107fc565b610e385760405162461bcd60e51b815260206004820152602e60248201527f45524337323155524953746f726167653a2055524920736574206f66206e6f6e60448201526d32bc34b9ba32b73a103a37b5b2b760911b6064820152608401610349565b6000828152600660209081526040909120825161047a9284019061107d565b60006001600160a01b0384163b15610f5957604051630a85bd0160e11b81526001600160a01b0385169063150b7a0290610e9b903390899088908890600401611412565b602060405180830381600087803b158015610eb557600080fd5b505af1925050508015610ee5575060408051601f3d908101601f19168201909252610ee291810190611383565b60015b610f3f573d808015610f13576040519150601f19603f3d011682016040523d82523d6000602084013e610f18565b606091505b508051610f375760405162461bcd60e51b815260040161034990611462565b805181602001fd5b6001600160e01b031916630a85bd0160e11b14905061078e565b506001949350505050565b606081610f885750506040805180820190915260018152600360fc1b602082015290565b8160005b8115610fb25780610f9c816115af565b9150610fab9050600a8361151d565b9150610f8c565b6000816001600160401b03811115610fda57634e487b7160e01b600052604160045260246000fd5b6040519080825280601f01601f191660200182016040528015611004576020820181803683370190505b5090505b841561078e57611019600183611531565b9150611026600a866115ca565b611031906030611505565b60f81b81838151811061105457634e487b7160e01b600052603260045260246000fd5b60200101906001600160f81b031916908160001a905350611076600a8661151d565b9450611008565b82805461108990611574565b90600052602060002090601f0160209004810192826110ab57600085556110f1565b82601f106110c457805160ff19168380011785556110f1565b828001600101855582156110f1579182015b828111156110f15782518255916020019190600101906110d6565b506110fd929150611101565b5090565b5b808211156110fd5760008155600101611102565b60006001600160401b03808411156111305761113061160a565b604051601f8501601f19908116603f011681019082821181831017156111585761115861160a565b8160405280935085815286868601111561117157600080fd5b858560208301376000602087830101525050509392505050565b80356001600160a01b03811681146111a257600080fd5b919050565b6000602082840312156111b8578081fd5b6107c78261118b565b600080604083850312156111d3578081fd5b6111dc8361118b565b91506111ea6020840161118b565b90509250929050565b600080600060608486031215611207578081fd5b6112108461118b565b925061121e6020850161118b565b9150604084013590509250925092565b60008060008060808587031215611243578081fd5b61124c8561118b565b935061125a6020860161118b565b92506040850135915060608501356001600160401b0381111561127b578182fd5b8501601f8101871361128b578182fd5b61129a87823560208401611116565b91505092959194509250565b600080604083850312156112b8578182fd5b6112c18361118b565b9150602083013580151581146112d5578182fd5b809150509250929050565b600080604083850312156112f2578182fd5b6112fb8361118b565b915060208301356001600160401b03811115611315578182fd5b8301601f81018513611325578182fd5b61133485823560208401611116565b9150509250929050565b60008060408385031215611350578182fd5b6113598361118b565b946020939093013593505050565b600060208284031215611378578081fd5b81356107c781611620565b600060208284031215611394578081fd5b81516107c781611620565b6000602082840312156113b0578081fd5b5035919050565b600081518084526113cf816020860160208601611548565b601f01601f19169290920160200192915050565b600083516113f5818460208801611548565b835190830190611409818360208801611548565b01949350505050565b6001600160a01b0385811682528416602082015260408101839052608060608201819052600090611445908301846113b7565b9695505050505050565b6020815260006107c760208301846113b7565b60208082526032908201527f4552433732313a207472616e7366657220746f206e6f6e20455243373231526560408201527131b2b4bb32b91034b6b83632b6b2b73a32b960711b606082015260800190565b60208082526031908201527f4552433732313a207472616e736665722063616c6c6572206973206e6f74206f6040820152701ddb995c881b9bdc88185c1c1c9bdd9959607a1b606082015260800190565b60008219821115611518576115186115de565b500190565b60008261152c5761152c6115f4565b500490565b600082821015611543576115436115de565b500390565b60005b8381101561156357818101518382015260200161154b565b838111156106195750506000910152565b600181811c9082168061158857607f821691505b602082108114156115a957634e487b7160e01b600052602260045260246000fd5b50919050565b60006000198214156115c3576115c36115de565b5060010190565b6000826115d9576115d96115f4565b500690565b634e487b7160e01b600052601160045260246000fd5b634e487b7160e01b600052601260045260246000fd5b634e487b7160e01b600052604160045260246000fd5b6001600160e01b03198116811461163657600080fd5b5056feddf252ad1be2c89b69c2b068fc378daa952ba7f163c4a11628f55a4df523b3efa2646970667358221220d3e8585c013f74805d35f83ab7a05ce9cc6ae6e60c71b65905e30f6c7e916e6d64736f6c63430008040033",
  "linkReferences": {},
  "deployedLinkReferences": {}
}