{
  "_format": "hh-sol-artifact-1",
  "contractName": "VerifySignature",
  "sourceName": "contracts/SignatureCore.sol",
  "abi": [
    {
      "inputs": [
        {
          "internalType": "bytes32",
          "name": "_messageHash",
          "type": "bytes32"
        }
      ],
      "name": "getEthSignedMessageHash",
      "outputs": [
        {
          "internalType": "bytes32",
          "name": "",
          "type": "bytes32"
        }
      ],
      "stateMutability": "pure",
      "type": "function"
    },
    {
      "inputs": [
        {
          "internalType": "address",
          "name": "_to",
          "type": "address"
        },
        {
          "internalType": "uint256",
          "name": "_amount",
          "type": "uint256"
        },
        {
          "internalType": "string",
          "name": "_message",
          "type": "string"
        },
        {
          "internalType": "uint256",
          "name": "_nonce",
          "type": "uint256"
        }
      ],
      "name": "getMessageHash",
      "outputs": [
        {
          "internalType": "bytes32",
          "name": "",
          "type": "bytes32"
        }
      ],
      "stateMutability": "pure",
      "type": "function"
    },
    {
      "inputs": [
        {
          "internalType": "bytes32",
          "name": "_ethSignedMessageHash",
          "type": "bytes32"
        },
        {
          "internalType": "bytes",
          "name": "_signature",
          "type": "bytes"
        }
      ],
      "name": "recoverSigner",
      "outputs": [
        {
          "internalType": "address",
          "name": "",
          "type": "address"
        }
      ],
      "stateMutability": "pure",
      "type": "function"
    },
    {
      "inputs": [
        {
          "internalType": "bytes",
          "name": "sig",
          "type": "bytes"
        }
      ],
      "name": "splitSignature",
      "outputs": [
        {
          "internalType": "bytes32",
          "name": "r",
          "type": "bytes32"
        },
        {
          "internalType": "bytes32",
          "name": "s",
          "type": "bytes32"
        },
        {
          "internalType": "uint8",
          "name": "v",
          "type": "uint8"
        }
      ],
      "stateMutability": "pure",
      "type": "function"
    },
    {
      "inputs": [
        {
          "internalType": "address",
          "name": "_signer",
          "type": "address"
        },
        {
          "internalType": "address",
          "name": "_to",
          "type": "address"
        },
        {
          "internalType": "uint256",
          "name": "_amount",
          "type": "uint256"
        },
        {
          "internalType": "string",
          "name": "_message",
          "type": "string"
        },
        {
          "internalType": "uint256",
          "name": "_nonce",
          "type": "uint256"
        },
        {
          "internalType": "bytes",
          "name": "signature",
          "type": "bytes"
        }
      ],
      "name": "verify",
      "outputs": [
        {
          "internalType": "bool",
          "name": "",
          "type": "bool"
        }
      ],
      "stateMutability": "pure",
      "type": "function"
    }
  ],
  "bytecode": "0x608060405234801561001057600080fd5b506105b1806100206000396000f3fe608060405234801561001057600080fd5b50600436106100575760003560e01c806397aba7f91461005c578063a35f8a401461008c578063a7bb5803146100ad578063abe5026a146100de578063fa54080114610101575b600080fd5b61006f61006a366004610483565b610114565b6040516001600160a01b0390911681526020015b60405180910390f35b61009f61009a36600461040f565b610193565b604051908152602001610083565b6100c06100bb3660046104c7565b6101cc565b60408051938452602084019290925260ff1690820152606001610083565b6100f16100ec36600461037c565b61023f565b6040519015158152602001610083565b61009f61010f36600461046b565b610288565b600080600080610123856101cc565b6040805160008152602081018083528b905260ff8316918101919091526060810184905260808101839052929550909350915060019060a0016020604051602081039080840390855afa15801561017e573d6000803e3d6000fd5b5050604051601f190151979650505050505050565b6000848484846040516020016101ac9493929190610501565b604051602081830303815290604052805190602001209050949350505050565b600080600083516041146102215760405162461bcd60e51b81526020600482015260186024820152770d2dcecc2d8d2c840e6d2cedcc2e8eae4ca40d8cadccee8d60431b604482015260640160405180910390fd5b50505060208101516040820151606090920151909260009190911a90565b60008061024e87878787610193565b9050600061025b82610288565b9050886001600160a01b03166102718286610114565b6001600160a01b0316149998505050505050505050565b6040517b0ca2ba3432b932bab69029b4b3b732b21026b2b9b9b0b3b29d05199960211b6020820152603c8101829052600090605c01604051602081830303815290604052805190602001209050919050565b80356001600160a01b03811681146102f157600080fd5b919050565b600082601f830112610306578081fd5b81356001600160401b038082111561032057610320610565565b604051601f8301601f19908116603f0116810190828211818310171561034857610348610565565b81604052838152866020858801011115610360578485fd5b8360208701602083013792830160200193909352509392505050565b60008060008060008060c08789031215610394578182fd5b61039d876102da565b95506103ab602088016102da565b94506040870135935060608701356001600160401b03808211156103cd578384fd5b6103d98a838b016102f6565b94506080890135935060a08901359150808211156103f5578283fd5b5061040289828a016102f6565b9150509295509295509295565b60008060008060808587031215610424578384fd5b61042d856102da565b93506020850135925060408501356001600160401b0381111561044e578283fd5b61045a878288016102f6565b949793965093946060013593505050565b60006020828403121561047c578081fd5b5035919050565b60008060408385031215610495578182fd5b8235915060208301356001600160401b038111156104b1578182fd5b6104bd858286016102f6565b9150509250929050565b6000602082840312156104d8578081fd5b81356001600160401b038111156104ed578182fd5b6104f9848285016102f6565b949350505050565b606085901b6001600160601b0319168152601481018490528251600090815b8181101561053d5760208187018101516034868401015201610520565b8181111561054e5782603483860101525b506034920191820192909252605401949350505050565b634e487b7160e01b600052604160045260246000fdfea2646970667358221220cbfecc168fdf20f3f663adc5790e104812aa4ae7e2132a7abbc26e06a51a814864736f6c63430008040033",
  "linkReferences": {},
  "deployedLinkReferences": {}
}